:100000000C941A030C9442030C9442030C94AD1903
:100010000C94531A0C942F1A0C9442030C94420320
:100020000C9442030C9442030C9442030C9442033C
:100030000C9442030C9442030C9442030C9442032C
:100040000C940B190C9442030C947B190C945519C5
:100050000C9442030C9442030C9442030C9442030C
:100060000C9442030C94420300407A10F35A00A00F
:10007000724E18090010A5D4E80000E87648170071
:1000800000E40B54020000CA9A3B000000E1F505B1
:10009000000080969800000040420F000000A086FB
:1000A00001000000102700000000E803000000002D
:1000B0006400000000000A000000000001000000D1
:1000C00000002C76D888DC674F0823DFC1DFAE59EB
:1000D000E1B1B796E5E3E453C63AE651997696E87E
:1000E000E6C28426EB898C9B62ED407C6FFCEFBC02
:1000F0009C9F40F2BAA56FA5F490055A2AF75C932D
:100100006B6CF9676DC11BFCE0E40D47FEF520E662
:10011000B500D0ED902E0300943577050080841E45
:10012000080000204E0A000000C80C333333330FA0
:10013000986E12831141EF8D2114893BE65516CF3D
:10014000FEE6DB18D1844B381BF77C1D901DA4BB49
:10015000E424203284725E228100C9F124ECA1E5FE
:100160003D27446973636F6E6E6563746564004D0B
:1001700043553A20004552524F523A206F62645222
:1001800065616428292074696D656F757400455236
:10019000524F523A20696E76616C696420636F6DCC
:1001A000706C656D656E74004F55543A0020626C3A
:1001B0006F636B5F636F756E7465723D002D2D2DDF
:1001C0004B575053656E6420737A3D006D2F735EFC
:1001D0003200426172006465672F730044656700F6
:1001E00056006D6D004F686D0053007365630067C6
:1001F0002F730057534300575343007300636F75C9
:100200006E7400672F73004E6D006D672F68006D70
:10021000626172006D672F680020006D7300446595
:1002200067206B2F7700200056004B770041680055
:1002300041006D672F6800446567206B2F77006B66
:100240006D006C2F68006B5700252500C2B043007D
:10025000446567206B2F77002000C2B00043006721
:100260002F730041002525006D73005600252500E1
:100270006C006D626172006D7300626172006D6D81
:10028000004F686D0020005741524D00434F4C44D1
:10029000004465670020006B6D2F68005600C2B0F7
:1002A00043004154444300446567002525007270B3
:1002B0006D002020746578743D002020623D002090
:1002C00020613D00747970653D00636F756E743D0B
:1002D000004552524F523A20696E76616C69642033
:1002E000616E73776572002D2D2D2D2D2D72656138
:1002F0006453656E736F7273200020484558002D5B
:100300002D2D20002062617564002D2D2D20002DE3
:100310002D2D2053494D554C4154494F4E206F6669
:1003200066002D2D2D2053494D554C4154494F4EBB
:10033000206F6E002D2D2D204445425547206F6EB5
:1003400000536176656420636F6E666967757261DC
:1003500074696F6E3A200000C201000100110011A3
:10036000000C0000E100000A00250025002100002B
:100370009600001900390039003600127A00001F7B
:10038000004600460044008070000022004D004DF1
:10039000004A00004B0000360075007500720040F6
:1003A0003800004A009C009C009900A02800006AC8
:1003B00000DA00DA00D700802500007200EC00ECC3
:1003C00000E900C0120000E900DA01DA01D701609B
:1003D000090000D701B603B603B303B0040000B3AD
:1003E000036E076E076B07580200006E07DC0EDC19
:1003F0000ED80E2C010000DC0EC11DC11DBE1D203B
:1004000073746F706269740020706172697479002E
:10041000207374617274626974003D0062697400D3
:100420002D2D2D4B57502035206261756420696E4B
:100430006974002D2D2D4B575053656E6441636BCD
:10044000426C6F636B20626C6F636B5F636F756E82
:100450007465723D004552524F523A20756E657870
:1004600070656374656420616E73776572002D2D0D
:100470002D2D2D2D72656164636F6E6E65637462E0
:100480006C6F636B7300436F6E6E6563746564209D
:10049000746F20454355210052656164436F6E6E51
:1004A000656374426C6F636B7320444F4E4500521A
:1004B000656164436F6E6E656374426C6F636B73EA
:1004C000004B57503542617564496E697420444F42
:1004D0004E45004B57503542617564496E69742032
:1004E00048616E647368616B6520444F4E45005DE2
:1004F00000200020005D20676F74205B002000203A
:10050000004578706563746564205B0048616E64C3
:100510007368616B65204572726F7221004B575092
:100520003542617564496E69742048616E64736810
:10053000616B65204552524F52004B575035426116
:100540007564496E6974206F6E2061646472200066
:100550004F42442E626567696E282920444F4E45FC
:10056000004F42442E626567696E28290057415248
:100570004E3A20636F6E6E656374696F6E5F61746F
:1005800074656D7074735F636F756E746572203E11
:1005900020300000000000240027002A0000000096
:1005A0000800020100000304070000000000000032
:1005B00000200020646174613D00494E3A20737A46
:1005C0003D004552524F523A2074696D656F757403
:1005D0000020626C6F636B5F636F756E7465723D54
:1005E000002D2D2D4B57505265636569766520733C
:1005F0007A3D0000000000230026002900000000D2
:1006000000250028002B0004040404040404040250
:10061000020202020203030303030301020408109F
:10062000204080010204081020010204081020006C
:10063000771AEA2711241FBECFEFD8E0DEBFCDBF67
:1006400014E0A0E0B1E0E8E4F6E602C005900D9207
:10065000A237B107D9F725E0A2E7B4E001C01D92A7
:10066000A93EB207E1F713E0C9E1D3E004C0219746
:10067000FE010E94472DC831D107C9F70E94841B93
:100680000C9417330C94000080E480937C008091DC
:100690007A00806480937A0080917A0086FDFCCF96
:1006A00080917800909179000895FC01538D448DDC
:1006B000252F30E0842F90E0821B930B541710F00D
:1006C000CF96089501970895FC01918D828D98171A
:1006D00061F0A28DAE0FBF2FB11D5D968C91928DF2
:1006E0009F5F9F73928F90E008958FEF9FEF089523
:1006F000FC01918D828D981731F0828DE80FF11DEC
:10070000858D90E008958FEF9FEF0895FC01918D06
:10071000228D892F90E0805C9F4F821B91098F73FF
:1007200099270895FC01A48DA80FB92FB11DA35AD4
:10073000BF4F2C91848D90E001968F739927848F01
:10074000A689B7892C93A089B1898C918370806424
:100750008C93938D848D981306C00288F389E02DC5
:1007600080818F7D80830895EF92FF920F931F9376
:10077000CF93DF93EC0181E0888F9B8D8C8D981354
:100780001AC0E889F989808185FF15C09FB7F89460
:10079000EE89FF896083E889F989808183708064AC
:1007A00080839FBF81E090E0DF91CF911F910F91F7
:1007B000FF90EF900895F62E0B8D10E00F5F1F4F06
:1007C0000F731127E02E8C8D8E110CC00FB607FC15
:1007D000FACFE889F989808185FFF5CFCE010E94A3
:1007E0009203F1CFEB8DEC0FFD2FF11DE35AFF4F7C
:1007F000F0829FB7F8940B8FEA89FB898081806231
:10080000CFCF0F931F93CF93DF938C01D0E0C0E045
:10081000F801EC0FFD1F6491662341F08FEC94E02A
:100820000E94B403892B11F02196F2CFCE01DF9103
:10083000CF911F910F910895CF93DF93EC01888D95
:100840008823B9F0AA89BB89E889F9898C9185FD4B
:1008500003C0808186FD0DC00FB607FCF7CF8C91D9
:1008600085FFF2CF808185FFEDCFCE010E949203FC
:10087000E9CFDF91CF9108958FEC94E00E94860339
:1008800021E0892B09F420E0822F089580E090E098
:10089000892B29F00E943C0481110C9400000895DA
:1008A00090E0FC01E356FA4F2491FC01E55EF94F1C
:1008B0003491FC01E95FF94FE491EE23C9F0222362
:1008C00039F0233001F1A8F4213019F1223029F157
:1008D000F0E0EE0FFF1FE350FA4FA591B4918FB7F0
:1008E000F894EC91611126C030953E233C938FBF64
:1008F00008952730A9F02830C9F0243049F78091B5
:1009000080008F7D03C0809180008F77809380006E
:10091000DFCF84B58F7784BDDBCF84B58F7DFBCFF0
:100920008091B0008F778093B000D2CF8091B000DB
:100930008F7DF9CF3E2BDACFCF93DF9390E0FC0190
:10094000E55EF94F2491895F994FFC0184918823DA
:10095000D1F090E0880F991FFC01ED56FA4FA59158
:10096000B491FC01E350FA4FC591D49161110EC0CE
:100970009FB7F8948C91E22FE0958E238C93288179
:10098000E223E8839FBFDF91CF9108958FB7F8945A
:10099000EC91E22BEC938FBFF6CF3FB7F8948091A8
:1009A000C9049091CA04A091CB04B091CC0426B59F
:1009B000A89B05C02F3F19F00196A11DB11D3FBF97
:1009C000BA2FA92F982F8827BC01CD01620F711D66
:1009D000811D911D42E0660F771F881F991F4A9560
:1009E000D1F708958F929F92AF92BF92CF92DF92EC
:1009F000EF92FF924B015C010E94CD046B017C01E0
:100A00000E94CD046C197D098E099F09683E7340D0
:100A100081059105A8F321E0821A9108A108B10887
:100A200088EEC80E83E0D81EE11CF11C81149104ED
:100A3000A104B10429F7FF90EF90DF90CF90BF9011
:100A4000AF909F908F9008952FB7F8946091C50450
:100A50007091C6048091C7049091C8042FBF089577
:100A6000FC01248135816217730748F480819181EC
:100A7000009729F0860F971FFC018081089580E080
:100A80000895DC0114962D913C9115976217730718
:100A900028F4ED91FC91E60FF71F40830895089527
:100AA000DB0114964D915C9115976D917C91DC0161
:100AB000ED91FC910280F381E02D0994AF92BF92F9
:100AC000CF92DF92EF92FF920F931F93CF93DF931A
:100AD0006C017B018B01040F151FEB015E01AE1849
:100AE000BF08C017D10759F06991D601ED91FC916B
:100AF0000190F081E02DC6010995892B79F7C50198
:100B0000DF91CF911F910F91FF90EF90DF90CF90E9
:100B1000BF90AF9008958091B5059091B6058F3F35
:100B2000910528F01092B6051092B505089501962A
:100B30009093B6058093B5050895DC015196ED912B
:100B4000FC915297908150968C9180958923808357
:100B500008952091B4043091B5042817390781F421
:100B60009091B2048091B304981751F0E091B204CF
:100B7000F0E0EE58FB4F8081082E000C990B089591
:100B80008FEF9FEF08952091B4043091B50428179A
:100B9000390739F48FB7F8941092B3041092B20465
:100BA0008FBF08952091B4043091B50428173907F8
:100BB00071F48091B3042091B20490E0805C9F4F67
:100BC000821B910960E470E00E94332D089590E04B
:100BD00080E008952091B4043091B50428173907B6
:100BE000B9F49091B2048091B304981789F0E09120
:100BF000B204F0E0EE58FB4F80812091B20430E067
:100C00002F5F3F4F2F7333272093B20490E0089556
:100C10008FEF9FEF089520E001972FEF8F3F92070E
:100C2000D9F7089590E080E00895DF92EF92FF9267
:100C30000F931F93CF93DF93EC01898D9A8D892BAE
:100C400071F481E090E09B838A8390E080E0DF9103
:100C5000CF911F910F91FF90EF90DF900895162F85
:100C6000DFB6F8948B8D81FD29C0CE010E949D05D1
:100C7000898D9A8D05960E940B068B8D98E0E92E42
:100C8000F12C01E081FF28C0812F8023F1F0CE01FB
:100C90000E949D05898D9A8D0E940B06000F81E0B0
:100CA000E81AF10889F7CE010E949D05DFBE898D03
:100CB0009A8D0E940B0681E090E0C9CFE989FA89FC
:100CC00080819889892B8083D3CFE989FA898081B3
:100CD0009889892B8083DECF812F8023B1F0E98929
:100CE000FA8980819889892B8083898D9A8D0E94C9
:100CF0000B06000F81E0E81AF10871F7E989FA891B
:100D000080819889892B8083D1CFCE010E949D0557
:100D1000ECCFCF93DF93EC0160E08E810E94500412
:100D200061E08E810E94500460E08E810E94500438
:100D30008BE891E00197F1F7DF91CF910895CF9281
:100D4000DF92EF92FF920F931F93CF93DF936C018B
:100D50007C0187E0E80EF11CD0E0C0E0062F10E037
:100D6000B8010C2E02C0759567950A94E2F7617080
:100D7000F70181917F010E9450042196C430D10572
:100D800079F7C601DF91CF911F910F91FF90EF90FE
:100D9000DF90CF900C948906CF92DF92EF92FF9272
:100DA0000F931F93CF93DF93EC01F62E642F8C816A
:100DB0000E9450048D818F3F19F060E00E94500422
:100DC0000F2D10E08F8584FF25C06E0187E0C80ECF
:100DD000D11CF12CE12CB8010E2C02C07595679541
:100DE0000A94E2F76170F60181916F010E9450044C
:100DF000FFEFEF1AFF0A88E0E816F10461F7CE0171
:100E0000DF91CF911F910F91FF90EF90DF90CF90E6
:100E10000C948906B80184E0759567958A95E1F789
:100E2000CE010E949F066F2DCE01DF91CF911F91C1
:100E30000F91FF90EF90DF90CF900C949F0640E0D1
:100E4000682F88E795E00C94CC0681E00E941F078C
:100E50008BE39FE10197F1F7089590918B05891736
:100E600010F08FEF890FE82FF0E0E858FA4F8489EF
:100E700080680C941F07CF93DF93823029F4909100
:100E8000870598609093870580938B0510928C0559
:100E900080E480938D0580E180938E0580E58093CA
:100EA0008F0561E080917C050E949C0480917D0506
:100EB0008F3F19F061E00E949C0461E080917E0503
:100EC0000E949C04C8E7D5E09E01285735408091D8
:100ED000870584FD0BC084E090E021962817390730
:100EE00044F461E08E810E949C04EECF88E090E0A3
:100EF000F4CF8BE39DE00197F1F760E080917C05F2
:100F00000E94500460E080917E050E945004809110
:100F10007D058F3F19F060E00E94500480918705A5
:100F200084FD34C063E088E795E00E949F06CBE42F
:100F3000D6E4CE010197F1F763E088E795E00E94DF
:100F40009F062197F1F763E088E795E00E949F06EE
:100F500083E592E00197F1F762E088E795E00E946F
:100F60009F068091870580620E941F0784E080931E
:100F700088058CE00E941F070E94250782E080936D
:100F8000890586E0DF91CF910C941F0780620E9453
:100F90001F078BE496E40197F1F780918705806243
:100FA0000E941F0783E592E00197F1F78091870582
:100FB00080620E941F07D5CF41E00E94CC0681E0ED
:100FC00090E00895FB0101900020E9F73197AF010F
:100FD000461B570BDC01ED91FC910280F381E02D63
:100FE000099467E471E08FEC94E00C94E207CF93EE
:100FF000DF930E940104EC010E94F1078C0F9D1FFA
:10100000DF91CF9108956CEA7DE080E090E00E944E
:10101000F2041092B6051092B5051092B705109221
:10102000C5051092C6051092C7051092C80510920A
:10103000A4051092A5051092A6051092A70510927E
:10104000A1051092A0051092B8058FEF80930001C2
:101050001092C0041092BF041092C2041092C104F6
:101060008091CE04882321F082E691E00C94F7076A
:1010700008958F929F92AF92BF920F931F93CF9339
:10108000DF93CDB7DEB7A1970FB6F894DEBF0FBEE2
:10109000CDBF19A2423008F44AE08E010F5D1F4F08
:1010A000842E912CB12CA12CA50194010E94F62C28
:1010B000E62FB901CA01EA3004F5E05DD801EE93EC
:1010C0008D01232B242B252B79F790E080E01097BE
:1010D00029F0BD018FEC94E00E94E207A1960FB6C3
:1010E000F894DEBF0FBECDBFDF91CF911F910F915E
:1010F000BF90AF909F908F900895E95CDFCF462F0F
:10110000682F70E090E080E00C943908CF93DF9373
:1011100060E170E00E947F08EC010E94F1078C0FF3
:101120009D1FDF91CF910895CF93C82F8091CE045A
:10113000882339F08FE691E00E9401048C2F0E94F1
:10114000860865E070E080E090E00E94F2046C2F79
:1011500089EC95E0CF910C941506CF92DF92EF9237
:10116000FF92CF93DF936C01990FEE08FF086A306E
:101170007105E1F44AE0F7FE1AC06DE28FEC94E0ED
:101180000E94B403EC0166277727CB016C197D0917
:101190008E099F094AE00E9439088C0F9D1FDF913C
:1011A000CF91FF90EF90DF90CF900895462FC70129
:1011B000B601DF91CF91FF90EF90DF90CF900C942C
:1011C0003908CF93DF93BC0190E080E04AE00E94B1
:1011D0003908EC010E94F1078C0F9D1FDF91CF9120
:1011E00008950C94E207CF93DF9382E00E943B07BF
:1011F0000E94250761E082E00E949C0461E082E099
:101200000E9450040E94250780E00E942D076AE496
:1012100071E088E795E00E94F10881E00E942D07C7
:1012200064E571E088E795E00E94F10864EA75E002
:1012300080E090E00E94F2040E94250780E00E9476
:101240002D0764E671E088E795E00E94F10881E0EF
:101250000E942D0763E771E088E795E00E94F1089E
:101260000E944403C0E08C3391053CF080599140CA
:10127000C1E0883C910508F0CFEF6AE070E080E0C3
:1012800090E00E94F204CF3F59F3C1110AC164E813
:1012900071E088E795E00E94F1081092CE046BE2BD
:1012A00072E080E090E00E94F2040E94250780E056
:1012B0000E942D0766EA71E088E795E00E94F10838
:1012C00081E00E942D0767EB71E088E795E00E94BE
:1012D000F1080E944403C1E08C33910544F0805929
:1012E0009140C1E0883C910508F4C0E0C1956AE0F6
:1012F00070E080E090E00E94F204CF3F51F3C11112
:10130000DAC068EC71E088E795E00E94F10810927D
:10131000C3046BE272E080E090E00E94F2040E945D
:10132000250780E00E942D076AEE71E088E795E0CE
:101330000E94F10881E00E942D076BEF71E088E7C1
:1013400095E00E94F1080E944403C0EAD8E28C3381
:10135000910574F0C0E8D5E2883C91054CF08059C5
:101360009140C0ECD2E1883C910510F0D0E0C0E0A3
:101370006AE070E080E090E00E94F204209719F3A8
:10138000C03C82E1D80709F0A0C080E00E942D0790
:101390006CE072E088E795E00E94F10881E00E942D
:1013A0002D076DE172E088E795E00E94F108D09387
:1013B000B804C093B7046BE272E080E090E00E9452
:1013C000F2040E94250780E00E942D0761E572E08B
:1013D00088E795E00E94F10881E00E942D0762E60F
:1013E00072E088E795E00E94F1080E944403C1E1A1
:1013F0008C3391053CF080599140C1E0883C9105C7
:1014000008F0C0E06AE070E080E090E00E94F20442
:10141000CC2359F3C13009F078C063E772E088E764
:1014200095E00E94F108C093B6046BE272E080E0A0
:1014300090E00E94F2048091CE04882309F477C0E2
:1014400081E493E00E94F70784E393E00E94F707AA
:101450008091C304882309F467C082E293E00E946C
:10146000F7078AE093E00E9401046AE070E080914F
:10147000B7049091B8040E94AD0884E093E00E9404
:10148000F7078FEF92E00E94010460E170E0809125
:10149000B6040E947F088AEF92E0DF91CF910C940E
:1014A000F70765E971E088E795E00E94F10881E0BF
:1014B0008093CE04F4CE69ED71E088E795E00E9458
:1014C000F10881E08093C30424CFC03885E2D807B7
:1014D00031F481E00E942D076FE272E064CFC03AE0
:1014E00088E2D80779F480E00E942D076CE072E072
:1014F00088E795E00E94F10881E00E942D0760E4F2
:1015000072E051CF0E94F30852CFC13151F464E828
:1015100072E088E795E00E94F10887E18093B604C5
:1015200084CF0E94F30881CF8FE093E098CFDF91C2
:10153000CF910895CF92DF92EF92FF92CF930E94C6
:1015400024056B017C0128EEC20E23E0D21EE11CB3
:10155000F11C89EC95E00E94D205892BC9F40E9408
:1015600024056C157D058E059F0598F38091CE04AA
:10157000882321F085E791E00E94F7070E94030885
:10158000CFEF8C2FCF91FF90EF90DF90CF90089509
:1015900089EC95E00E94EA05C82F8091CE0488234B
:1015A00081F365E972E08FEC94E00E94F1088C2FE2
:1015B0000E948608E6CFFC0124813581FB0144812D
:1015C000558124173507E1F4FC0180819181FB01ED
:1015D000608171810097D1F061157105A1F4232B11
:1015E000C1F0FC01808190E008C0232B91F0FB0149
:1015F000808190E091958195910921E0892B09F0F6
:1016000020E0822F08950E946630F7CF61157105A2
:1016100061F721E0F6CF0F931F93CF93DF938C01F7
:10162000EB01FC01808191810097E1F06881798173
:1016300061157105A9F0428153812C813D814217CA
:10164000530770F00E946F308C819D81F801958363
:1016500084831D821C82DF91CF911F910F91089589
:101660000E94172F88819981F801918380838A8154
:101670009B81938382838C819D819583848319824E
:1016800018821B821A82E5CFCF93DF93EC01888109
:101690009981009711F00E94172F198218821D82DC
:1016A0001C821B821A82DF91CF910895FC018081F8
:1016B0009181009711F00C94172F08950F931F93A9
:1016C000CF93DF93EC0188819981009759F02A81AB
:1016D0003B812617370730F081E0DF91CF911F91D2
:1016E0000F9108958B016F5F7F4F0E94A02F00978D
:1016F00059F0998388831B830A832C813D81232B96
:1017000059F7FC011082E8CF80E0E7CFEF92FF921B
:101710000F931F93CF93DF936115710541F480E020
:10172000DF91CF911F910F91FF90EF900895411598
:101730005105B1F07B01EC010C811D81040F151FD7
:10174000B8010E945E0B882351F3288139818C8176
:101750009D81B701820F931F0E946F301D830C8300
:1017600081E0DECFEF92FF920F931F93CF93DF9331
:10177000CDB7DEB764970FB6F894DEBF0FBECDBF0E
:101780007C01CB01BA018E010F5F1F4F22E044E0C4
:101790000E942B28FC0101900020E9F73197AF014E
:1017A000481B590BBC01C7010E94860B811103C065
:1017B000C7010E94440BC70164960FB6F894DEBFC0
:1017C0000FBECDBFDF91CF911F910F91FF90EF9092
:1017D0000895CF93DF93EC01FB0101900020E9F71E
:1017E0003197AF01461B570B0E94860B811103C036
:1017F000CE010E94440BCE01DF91CF910895CF938B
:10180000DF93EC01FB0144815581608171810E946D
:10181000860B811103C0CE010E94440BCE01DF91E3
:10182000CF910895EF92FF920F931F93CF93DF9381
:10183000EC018B01CB010E94F4287C01BC01CE019C
:101840000E945E0B81110BC0CE010E94440BCE01A1
:10185000DF91CF911F910F91FF90EF900895FD823E
:10186000EC82B801888199810E94ED28F0CFEF9237
:10187000FF920F931F93CF93DF93EC017B018A01BB
:10188000BA010E945E0B81110BC0CE010E94440B75
:10189000CE01DF91CF911F910F91FF90EF900895AE
:1018A0001D830C83B701888199810E946F30F0CF2E
:1018B000FB0101900020E9F73197AF01461B570B60
:1018C0000C94370C0F931F93CF93DF93CDB7DEB7F4
:1018D00029970FB6F894DEBF0FBECDBF8C01862FBF
:1018E000F8011182108213821282158214824AE05A
:1018F000BE016F5F7F4F90E00E940829BE016F5FBD
:101900007F4FC8010E94580C29960FB6F894DEBF8D
:101910000FBECDBFDF91CF911F910F910895EF9230
:10192000FF920F931F93CF93DF93CDB7DEB7A197AD
:101930000FB6F894DEBF0FBECDBF7C01CB01BA015C
:10194000F7011182108213821282158214828E0195
:101950000F5F1F4F22E044E00E942B28009789F080
:10196000BC01C7010E94580CA1960FB6F894DEBFC7
:101970000FBECDBFDF91CF911F910F91FF90EF90E0
:101980000895C7010E94440BEFCF0F931F93CF938D
:10199000DF93CDB7DEB762970FB6F894DEBF0FBE08
:1019A000CDBF8C01CB01F80111821082138212820B
:1019B000158214824AE0BE016F5F7F4F0E94FD28AE
:1019C000BE016F5F7F4FC8010E94580C62960FB630
:1019D000F894DEBF0FBECDBFDF91CF911F910F9165
:1019E0000895CF93DF9300D0CDB7DEB7FC0111820D
:1019F0001082138212821582148269831A82BE01B8
:101A00006F5F7F4F0E94580C0F900F90DF91CF9126
:101A10000895CF93DF93EC01FB018617970749F0F8
:101A2000608171816115710541F0448155810E9489
:101A3000370CCE01DF91CF9108950E94440BF9CF6E
:101A4000FC01118210821382128215821482FB0122
:101A500001900020E9F73197AF01461B570B0C941A
:101A6000370CCF93DF93EC01662349F062E374E017
:101A7000CE010E94200DCE01DF91CF91089561E249
:101A800074E0F6CF2F923F924F925F926F927F92C7
:101A90008F929F92AF92BF92CF92DF92EF92FF927E
:101AA0000F931F93CF93DF93CDB7DEB76C970FB62D
:101AB000F894DEBF0FBECDBF6C015B017A01490116
:101AC000FA01008111818091CE048823A9F081EE72
:101AD00095E00E9401046AE070E0F7018081918145
:101AE0000E94AD0881ED95E00E9401048091B5054A
:101AF0009091B6050E94E108F70180819181A816B6
:101B0000B906ACF58091CE04882341F06AE972E011
:101B10008FEC94E00E94E2070E94F10781E00E94AE
:101B20002D0761EB72E088E795E00E94F10868EE0E
:101B300073E080E090E00E94F20480E06C960FB6C3
:101B4000F894DEBF0FBECDBFDF91CF911F910F91F3
:101B5000FF90EF90DF90CF90BF90AF909F908F90CD
:101B60007F906F905F904F903F902F900895332417
:101B70003394012B09F0312C0E9424052B013C01E8
:101B8000F8EE4F0EF3E05F1E611C711C10E000E0E8
:101B900089EC95E00E94D205892B09F4AEC00E9421
:101BA0009A0A282EF601E00FF11F80830F5F1F4F66
:101BB000F70180819181892B09F072C001301105F4
:101BC00009F06EC0F1E08F16910409F065C089EC50
:101BD00095E00E94D205892B09F45EC081E00E9445
:101BE0002D0762EC72E088E795E00E94F10881E041
:101BF0008093CD0486E090E0F7019183808380811B
:101C00009181A816B9060CF04BC081E00E942D0707
:101C100061EB72E088E795E00E94F10860ED77E003
:101C200080E090E088CF0115110509F4B1CFF701EC
:101C3000808191818017910709F0AACF8091CE040D
:101C4000882309F4BAC08AEB95E00E9401046AE097
:101C500070E0F701808191810E94AD0883EB95E0EF
:101C60000E9401048601F70120813181C8018C198D
:101C70009D09821793070CF09EC060E170E0F801A7
:101C800081918F010E947F0881EB95E00E94010401
:101C9000EACF80E0382E7CCF822D90E00196ACCF49
:101CA0008091CD04882371F00130110591F3033048
:101CB000110581F30430110561F30630110551F36C
:101CC000832DE8CFF70180819181311008C008177A
:101CD000190741F4822D80950E94940803C00817CB
:101CE0001907C4F30E9424052B013C01F8EE4F0EA6
:101CF000F3E05F1E611C711CE3CF0E942405641594
:101D000075058605970508F48ECF8091CE0488234B
:101D100021F082EC95E00E94F7070E9424056B01F8
:101D20007C0181E00E942D076AE074E0CE014796B5
:101D30000E94200DC701B60164197509860997092B
:101D40000E946E2B20E030E04AE754E40E94CE2D42
:101D50008E010F5F1F4F22E044E00E942B28B80144
:101D6000CE0141960E94200DBE016F5E7F4FCE01D5
:101D700047960E940B0BCE0141960E94560B64EDD4
:101D800072E0C8010E94200DBE01695E7F4FC8014C
:101D90000E94FF0B6EED72E00E94E90BBC0188E728
:101DA00095E00E945005C8010E94560BCE0147964F
:101DB0000E94560B33CF0E94F1070E948B0581E0F1
:101DC000BDCE7F928F929F92AF92BF92CF92DF92C1
:101DD000EF92FF920F931F93CF93DF93CDB7DEB7B0
:101DE00062970FB6F894DEBF0FBECDBF8C015B01CA
:101DF0008091CE04882369F18DEB91E00E9401046B
:101E00006AE070E0C5010E94AD088DEA91E00E9491
:101E100001048091B5059091B6050E94E10888EA19
:101E200091E00E94010478016501C00ED11E60E1BD
:101E300070E0F70181917F010E947F086EE372E0FC
:101E40008FEC94E00E94F108CE14DF0481F70E9429
:101E5000F107680110E000E04501F1E08F1A9108F8
:101E6000F601F1906F018F2D0E9494080815190555
:101E70000CF099C00E949A0AE82E7F2C7094781674
:101E800009F491C08091CE04882321F08EE891E07E
:101E90000E94F70780E00E942D076E2DCE010D965F
:101EA0000E94F10C672DCE0107960E94F10C62EEA4
:101EB00072E0CE0101960E94200DBE01695F7F4F46
:101EC000CE0101960E94FF0B69EE72E00E94E90BC1
:101ED000BE01635F7F4F0E94FF0BBC0182E795E06C
:101EE0000E94090DCE0101960E94560BCE01079665
:101EF0000E94560BCE010D960E94560B61EF72E0C8
:101F00008CE695E00E94580C6E2DCE010D960E9435
:101F1000F10C6F2DCE0107960E94F10C62EE72E07B
:101F2000CE0101960E94200DBE01695F7F4FCE0158
:101F300001960E94FF0B69EE72E00E94E90BBE0160
:101F4000635F7F4F0E94FF0BBC0188E795E00E9412
:101F50005005CE0101960E94560BCE0107960E94B5
:101F6000560BCE010D960E94560B81E00E942D0764
:101F700061EF72E088E795E00E94F10880E06296E8
:101F80000FB6F894DEBF0FBECDBFDF91CF911F918A
:101F90000F91FF90EF90DF90CF90BF90AF909F9008
:101FA0008F907F9008950F5F1F4FA016B10609F024
:101FB00057CF0E948B0581E0E2CF2F923F924F9244
:101FC0005F926F927F928F929F92AF92BF92CF92C9
:101FD000DF92EF92FF920F931F93CF93DF93CDB7D2
:101FE000DEB7CE59D1090FB6F894DEBF0FBECDBF14
:101FF0005C018091CE04882359F087EE92E00E9424
:1020000001046AE070E0C5010E94AD080E94F1077A
:10201000BF92AF928091B6058F938091B5058F9353
:1020200080E093E09F938F936E0121E4C20ED11C58
:10203000DF92CF920E94763065E070E0C6010E9488
:10204000E10E0FB6F894DEBF0FBECDBF8823C1F1FD
:10205000C756DF4F19821882C959D04021E030E0BD
:10206000AE0147565F4F60E470E0C6010E94420D2A
:10207000382E882329F18091CD04882309F454C097
:102080008091B6058F938091B5058F9381E191E0A2
:102090009F938F938E010F5F1F4F1F930F930E948B
:1020A000763064E070E0C8010E94E10E0F900F905E
:1020B0000F900F900F900F9081111EC01092CD04C1
:1020C000312C832DC256DF4F0FB6F894DEBF0FBE02
:1020D000CDBFDF91CF911F910F91FF90EF90DF90D7
:1020E000CF90BF90AF909F908F907F906F905F90B8
:1020F0004F903F902F9008951092B6051092B5051D
:102100001092CD04CF57DF4F19821882C158D040AA
:102110002FEF3FEFAE014F575F4F60E470E0C80113
:102120000E94420D882361F22091CE04F601828143
:10213000873EB1F0222321F081ED92E00E94F70763
:1021400081E00E942D0768E073E088E795E00E9437
:10215000F10860ED77E080E090E00E94F204B0CFFB
:10216000C756DF4F88819981C959D040049763E0F1
:1021700070E00E94332DC556DF4F79836883CB59B9
:10218000D040222381F08AEC92E00E9401046AE0B0
:1021900070E0C556DF4F88819981CB59D0400E94AD
:1021A000AD080E94F107F12CE12C9E012F5F3F4FFB
:1021B000490122242A94C556DF4F88819981CB5941
:1021C000D040E816F9060CF07CCFF7013196C356E3
:1021D000DF4FF983E883CD59D040F6017380148135
:1021E00005816AE074E0CE0189579F4F0E94200D5F
:1021F0008091CE048823F9F084EC92E00E940104DF
:102200006AE070E0872D0E947F088FEB92E00E94C9
:1022100001046AE070E0812F0E947F088AEB92E05F
:102220000E9401046AE070E0802F0E947F0882EB28
:1022300092E00E9401046AE074E0CE0183579F4F50
:102240000E94200D6AE074E0CE018D569F4F0E94DF
:10225000200DEFEFE70DE63408F0F3C60E2E000C6C
:10226000FF0BEB5CFE4E0C94472D7B11D611F51144
:1022700014123C12551274129312B212D512E412B7
:102280000D132C134F136E13211821188D13AC133B
:10229000C013DC13FB131A1420143F1461147014C0
:1022A00098142118A714B9142118BC14CF14F214CF
:1022B00011152A1533155615591584159515C01580
:1022C000E5150A162F164516581669168016A31618
:1022D000A616C716F016011713172417211836175C
:1022E00039172118501721186F177F17A217B61723
:1022F000DC17F3170A18612F70E090E080E00E946D
:10230000702B2DEC3CEC4CE45EE30E94CF2B2B01B8
:102310003C01602F70E090E080E00E94702B9B01F8
:10232000AC01C301B2010E94CF2B2B013C016EEA2C
:1023300072E0CE018D569F4F0E94120C80910001D9
:10234000813009F43CC78731C1F492E0A916B10489
:1023500009F4A8C6E3E0AE16B10409F416C7F1E02B
:10236000AF16B10451F421E0E216F10409F438C7C4
:102370000CF074C6EF2809F483C6CE018D569F4F2A
:102380000E94560BCE0183579F4F0E94560BCE01E1
:1023900089579F4F0E94560BF3E0CF0ED11CC356B6
:1023A000DF4FE880F980CD59D04005CF612F70E034
:1023B00090E080E00E94702B2FE632E143E05BE387
:1023C0000E94CF2B2B013C01602F70E090E080E059
:1023D0000E94702B9B01AC01C301B2010E94CF2B64
:1023E0002B013C016BEA72E0A4CF612F70E090E01A
:1023F00080E00E94702B2FE632E143E05BE30E9415
:10240000CF2B2B013C01602F70E090E080E00E9418
:10241000702B9B01AC01C301B2010E94CF2B2B0199
:102420003C0167EA72E085CF202F2F57330BB901AB
:1024300037FF03C0719561957109072E000C880B59
:10244000990B0E94702B2AE037ED43E25CE30E9477
:10245000CF2B2B013C01612F70E090E080E00E94C7
:10246000702B9B01AC01C301B2010E94CF2B2B0149
:102470003C0162EA72E05DCF802F8456990B189F71
:10248000A001199F500D1124BA01550F880B990B0B
:102490000E94702B2DEC3CEC4CEC5DE30E94CF2BAA
:1024A0002B013C016EE972E044CF612F70E090E0B7
:1024B00080E00E94702B2FE632E143E85AE30E944D
:1024C000CF2B2B013C01602F70E090E080E00E9458
:1024D000702B9B01AC01C301B2010E94CF2B2B01D9
:1024E0003C016CE972E025CF612F70E090E080E064
:1024F0000E94702B2AE037ED43E25CE30E94CF2B71
:102500002B013C01602F70E090E080E00E94702B76
:102510009B01AC01C301B2010E94CF2B2B013C01F6
:1025200067E972E006CF612F70E090E080E00E94E2
:10253000702B2DEC3CEC4CEC5DE30E94CF2B2B017F
:102540003C01602F70E090E080E00E94702B9B01C6
:10255000AC01C301B2010E94CF2B2B013C0165E904
:1025600072E0E7CEE02FEF57FF0BBF01072E000C04
:10257000880B990B0E94702B2AE037ED43EA5CE34D
:102580000E94CF2B2B013C01612F70E090E080E096
:102590000E94702B9B01AC01C301B2010E94CF2BA2
:1025A0002B013C0161E972E0C4CE6CE872E00023CB
:1025B00011F067E872E0CE0183579F4F0E94120C22
:1025C000412C512C3201BACE612F70E090E080E0B6
:1025D0000E94702B27E137EB41ED58E30E94CF2B8F
:1025E0002B013C01202F2058330BB901072E000C82
:1025F000880B990B0E94702B9B01AC01C301B201A7
:102600000E94CF2B20E030E040E85FE30E94622D83
:102610002B013C0165E872E08CCE612F70E090E008
:1026200080E00E94702B2FE632E143E85AE30E94DB
:10263000CF2B2B013C01602F70E090E080E00E94E6
:10264000702B9B01AC01C301B2010E94CF2B2B0167
:102650003C0161E872E06DCE802F8F57990BBC0171
:10266000072E000C880B990B0E94702B2FE632E18D
:1026700043E85AE30E94CF2B2B013C01612F70E00D
:1026800090E080E00E94702B9B01AC01C301B2017D
:102690000E94CF2B2B013C016EE772E04ACE612FE6
:1026A00070E090E080E00E94702B2AE037ED43EA72
:1026B0005BE30E94CF2B2B013C01602F70E090E088
:1026C00080E00E94702B9B01AC01C301B2010E940B
:1026D000CF2B2B013C016AE772E02BCE612F70E01B
:1026E00090E080E00E94702B2AE037ED43E25CE34B
:1026F0000E94CF2B2B013C01602F70E090E080E026
:102700000E94702B9B01AC01C301B2010E94CF2B30
:102710002B013C0167E772E00CCE612F70E090E086
:1027200080E00E94702B2AE037ED43E25DE30E94D7
:10273000CF2B2B013C01602F70E090E080E00E94E5
:10274000702B9B01AC01C301B2010E94CF2B2B0166
:102750003C0162E772E0EDCD109FB0011124072E1D
:10276000000C880B990B0E94702B2AE037ED43E296
:102770005CE30E94CF2B2B013C0160E772E0D9CDD6
:10278000E02FE058FF0B1E9FA0011F9F500D11244A
:1027900057FF02C041585F4FBA01660F672F661F8F
:1027A000770B072E000C880B990B0E94702B2B01C6
:1027B0003C016DE672E0BDCD612F70E090E080E0FD
:1027C0000E94702B2FE632E143E85AE30E94CF2BA0
:1027D0002B013C01602F70E090E080E00E94702BA4
:1027E0009B01AC01C301B2010E94CF2B2B013C0124
:1027F0006BE672E09ECD612F70E090E080E00E9479
:10280000702B2FE632E143E85AE30E94CF2B2B01D5
:102810003C01602F70E090E080E00E94702B9B01F3
:10282000AC01C301B2010E94CF2B2B013C0168E631
:1028300072E07FCD65E672E0CE018D569F4FBECE31
:10284000612F70E090E080E00E94702B2FE632E173
:1028500043E85AE30E94CF2B2B013C01602F70E02C
:1028600090E080E00E94702B9B01AC01C301B2019B
:102870000E94CF2B2B013C0163E672E05ACD602F02
:1028800070E090E080E00E94702B24E533EE45EB91
:102890005FE30E94CF2B2B013C0161E0163B08F463
:1028A00060E070E090E080E00E94702B9B01AC0142
:1028B000C301B2010E94622D2B013C016FE572E061
:1028C00038CD202F211B330BB901072E000C880BAC
:1028D000990B0E94702B2B013C016DE572E029CD14
:1028E000802F8058990BBC0197FF03C071956195AB
:1028F0007109072E000C880B990B0E94702B2AE09F
:1029000037ED43E25CE30E94CF2B2B013C01612FAA
:1029100070E090E080E00E94702B9B01AC01C3014D
:10292000B2010E94CF2B2B013C016AE572E001CD80
:10293000E02FE11BFF0BBF01072E000C880B990B4A
:102940000E94702B2B013C0168E572E0F2CC802FD5
:102950006CE00E94272D819FB0011124072E000CEE
:10296000880B990B0E94702B2B013C0160E572E0F3
:10297000E0CC6CE472E060CFF4E60F9FC00111245C
:10298000612F70E00E94332D072E000C880B990BED
:102990000E94702B2B013C0169E472E0CACC202F0D
:1029A0002058330BB901072E000C880B990B0E949D
:1029B000702B2AE037ED43E25CE30E94CF2B2B0122
:1029C0003C01612F70E090E080E00E94702B9B0141
:1029D000AC01C301B2010E94CF2B2B013C0166E484
:1029E00072E0A7CC612F70E090E080E00E94702B35
:1029F0002AE037ED43E25CE30E94CF2B2B013C0140
:102A0000602F70E090E080E00E94702B9B01AC0191
:102A1000C301B2010E94CF2B2B013C0162E472E0A2
:102A200088CC212F30E0A0E0BAE00E94182D2B01C5
:102A30003C01202F30E0AAE0B0E00E94182D640D88
:102A4000751D861D971D0E946E2B2B013C016FE3A7
:102A500072E06FCC602F70E090E080E00E946E2BFF
:102A60002B013C016BCC802F8058990BBC01072EA9
:102A7000000C880B990B0E94702B2FE632E143E883
:102A80005AE30E94CF2B2B013C01612F70E090E0B4
:102A900080E00E94702B9B01AC01C301B2010E9437
:102AA000CF2B2B013C0167E372E043CC62E372E081
:102AB000C3CE602F70E090E080E00E94702B2DEC80
:102AC0003CEC4CEC5DE30E94CF2B2B013C01612FD1
:102AD00070E090E080E00E94702B20E030E04CEC51
:102AE00051E40E94CF2B9B01AC01C301B2010E94B3
:102AF000622D20E030E048EC53E40E94612D2B0170
:102B00003C0160E372E015CC602F70E0129D600D17
:102B1000711D1124072E000C880B990B0E94702B3D
:102B20002B013C016DE272E004CC602F70E090E07C
:102B300080E00E94702B2DEC3CEC4CEC5DE30E949D
:102B4000CF2B2B013C01612F70E090E080E00E94D0
:102B5000702B20E030E04CEC51E40E94CF2B9B0125
:102B6000AC01C301B2010E94622D20E030E048ECCC
:102B700053E40E94612D2B013C016AE272E0D9CB43
:102B8000602F70E090E080E00E94702B2DEC3CEC18
:102B90004CEC5DE30E94CF2B2B013C01612F70E0D8
:102BA00090E080E00E94702B20E030E04CEC51E49B
:102BB0000E94CF2B9B01AC01C301B2010E94622D88
:102BC0002B013C0168E272E0B4CB1F920F931F927D
:102BD0001F93E9E1F3E0FF93EF939F928F920E949E
:102BE0007630B401CE018F579F4F0E94200DBE0159
:102BF0006F577F4FCE0183579F4F0E940B0BCE0123
:102C00008F579F4F0E94560B0FB6F894DEBF0FBE32
:102C1000CDBFD6CC612F70E090E080E00E94702B99
:102C20002DEC3CEC4CEC5DE30E94CF2B2B013C01E6
:102C3000602F70E090E080E00E94702B9B01AC015F
:102C4000C301B2010E94CF2B20E030E048EC52E4F7
:102C50000E94CE2D2B013C0166E272E06ACB109FF0
:102C6000B001112460587C40072E000C880B990B92
:102C70000E94702B2CE732EF40E35BE30E94CF2BE6
:102C80002B013C016EE172E054CBE02FE058FF0BCA
:102C90001E9FA0011F9F500D1124BA01550F880BD4
:102CA000990B0E94702B2B013C016BE172E041CB30
:102CB000602F70E0129D600D711D1124072E000C15
:102CC000880B990B0E94702B2B013C0169E172E08B
:102CD00030CB602F66956695619FB0011124072E59
:102CE000000C880B990B0E94702B2DEC3CEC4CECEB
:102CF0005DE30E94CF2B2B013C0164E172E019CB14
:102D0000202F2058330BB901072E000C880B990B8C
:102D10000E94702B2B013C01612F70E090E080E05D
:102D20000E94702B2AE037ED43E25CE30E94CF2B38
:102D30009B01AC01C301B2010E94CE2D2B013C01CD
:102D40006FE072E0F6CA6AE072E076CD612F70E063
:102D500090E080E00E94702B2B013C01602F70E01E
:102D600090E080E00E94702B2AE037ED43EA5CE3BC
:102D70000E94CF2BA30192010E94CF2BA3019201AD
:102D80000E94612D2B013C0167E072E0D2CA802FC6
:102D90008058990BBC01072E000C880B990B0E94E0
:102DA000702B26EA3AE046EB5FE30E94CF2B2B0123
:102DB0003C01612F70E090E080E00E94702B26EAD9
:102DC0003BE944EC5BE30E94CF2B9B01AC01C301C8
:102DD000B2010E94622D2B013C0163E072E0A9CA9E
:102DE000612F70E0762F6627600F711D072E000C93
:102DF000880B990B0E94702B2B013C016DEF71E049
:102E000098CA109FC001112468EC70E00E94332D15
:102E1000072E000C880B990B0E94702B2B013C0194
:102E20006BEF71E086CA612F70E0762F6627600F26
:102E3000711D072E000C880B990B0E94702B2B0123
:102E40003C0167EF71E075CA612F70E0762F66274D
:102E5000600F711D072E000C880B990B01960E94C4
:102E6000702B2B013C0163EF71E063CA6FEE71E0E0
:102E7000E3CC612F70E0762F6627600F711D072E5F
:102E8000000C880B990B0E94702B2AE037ED43E26F
:102E90005CE30E94CF2B2B013C016BEE71E049CA31
:102EA000612F70E090E080E00E94702B2FE632E10D
:102EB00043E85EE30E94CF2B2B013C01602F70E0C2
:102EC00090E080E00E94702B9B01AC01C301B20135
:102ED0000E94CF2B2B013C0169EE71E02ACAE12F41
:102EE000E00FFF27FF1FBF01072E000C880B990B77
:102EF0000E94702B2B013C0165EE71E01ACA612F14
:102F000070E090E080E00E94702B2AE037ED43E211
:102F10005CE30E94CF2B2B013C01202F2F57330B5A
:102F2000B901072E000C880B990B0E94702B9B0196
:102F3000AC01C301B2010E94CF2B2B013C0162EE18
:102F400071E0F7C9109FB0011124072E000C880B07
:102F5000990B0E94702B2CE53FE84FEF53E40E9441
:102F6000CE2D2B013C0160EE71E0E3C980E892E0D8
:102F7000189FB001199F700D1124072E000C880BAB
:102F8000990B0E94702B2B013C01602F70E090E0A8
:102F900080E00E94702B20E030E040E250E40E948C
:102FA000CF2B9B01AC01C301B2010E94622D2B010A
:102FB0003C016CED71E0BDC9612F70E0762F662792
:102FC000600F711D072E000C880B990B0E94702B4F
:102FD00024E13EEA4BEE50E40E94CE2D2B013C0151
:102FE00066ED71E0A6C9612F70E0762F6627600F4D
:102FF000711D072E000C880B990B0E94702B24ED7D
:103000003AE946EA5EE30E94CF2B2B013C0162EDD8
:1030100071E08FC9612F70E0762F6627600F711DF8
:10302000072E000C880B990B0E94702B26EA3BE9B7
:1030300044E45EE30E94CF2B2B013C016CEC71E079
:1030400078C91F920F931F921F93E1E2F3E0FF9361
:10305000EF939F928F920E947630D6CD82E0E81651
:10306000F104B9F093E0E916F10409F086C9C3014F
:10307000B2010E94402E7093AD056093AC057DC9EE
:10308000C301B2010E94402E7093B3056093B20554
:1030900074C9C301B2010E94402E7093AF056093C2
:1030A000AE056BC9E1E0EE16F10409F443C084F506
:1030B000EF2809F062C9C301B2010E94402E2B0122
:1030C000770F660877084092A8055092A90560928C
:1030D000AA057092AB050E9424050091C5051091C8
:1030E000C6052091C7053091C805601B710B820B86
:1030F000930B6C3A7D408105910508F03EC94092E2
:10310000A4055092A5056092A6057092A70535C941
:1031100022E0E216F10481F133E0E316F10409F054
:103120002CC940929A0550929B0560929C05709222
:103130009D0523C9C301B2010E94402E2B0170934B
:10314000A3056093A2050E9424050091C505109176
:10315000C6052091C7053091C805601B710B820B15
:10316000930B6C3A7D408105910508F006C9509299
:10317000A1054092A00501C9C301B2010E94402EE1
:1031800070939F0560939E05F8C8E114F10471F0F7
:1031900022E0E216F10409F0F0C8C301B2010E9476
:1031A000402E7093950560939405E7C8C301B20162
:1031B0000E94402E7093990560939805DEC831E017
:1031C000A316B10409F0D9C883E0E816F1048CF421
:1031D00091E0E916F1040CF0D0C8EF2809F0CDC851
:1031E000C301B2010E94402E7093B1056093B005F7
:1031F000C4C8E3E0EE16F10409F0BFC8B301A201B0
:10320000CE018F579F4F0E948F0CCE018F579F4F3B
:103210000E94560BB2C81F920F920FB60F92112444
:103220002F933F938F939F93AF93BF938091C50448
:103230009091C604A091C704B091C8043091C40411
:1032400023E0230F2D3758F50196A11DB11D2093C2
:10325000C4048093C5049093C604A093C704B0939C
:10326000C8048091C9049091CA04A091CB04B09184
:10327000CC040196A11DB11D8093C9049093CA048A
:10328000A093CB04B093CC04BF91AF919F918F9149
:103290003F912F910F900FBE0F901F90189526E829
:1032A000230F0296A11DB11DD2CF1F920F920FB610
:1032B0000F9211242F933F934F935F936F937F93BC
:1032C0008F939F93AF93BF93EF93FF938FEC94E013
:1032D0000E949203FF91EF91BF91AF919F918F91C7
:1032E0007F916F915F914F913F912F910F900FBE02
:1032F0000F901F9018951F920F920FB60F921124E6
:103300002F938F939F93EF93FF93E091DF04F091BE
:10331000E0048081E091E504F091E60482FD1BC0A9
:1033200090818091E8048F5F8F732091E904821768
:1033300041F0E091E804F0E0E153FB4F958F80937A
:10334000E804FF91EF919F918F912F910F900FBE05
:103350000F901F9018958081F4CF1F920F920FB697
:103360000F921124EF92FF920F931F932F933F938D
:103370004F935F936F937F938F939F93AF93BF937D
:10338000CF93DF93EF93FF93C091B404D091B50432
:10339000209749F0EE85FF859D858B8D81FF1AC0B2
:1033A00080818923D1F4FF91EF91DF91CF91BF917B
:1033B000AF919F918F917F916F915F914F913F91CD
:1033C0002F911F910F91FF90EF900F900FBE0F90D4
:1033D0001F9018958081892331F78B899C890E94E1
:1033E0000B0688E0E82EF12C10E001E08D899E8923
:1033F0000E940B06EE85FF8580819D85892339F12A
:10340000102B000F81E0E81AF10881F78F89988D61
:103410000E940B068B8D81FD10958091B304209145
:10342000B20490E001968F7399272817190699F036
:10343000E091B304F0E0EE58FB4F10838091B304A9
:1034400090E001968F7399278093B304ACCF802FBF
:1034500080951823D6CF8B8D81608B8FA4CF1F9240
:103460000F920FB60F9211242F933F934F935F93B8
:103470006F937F938F939F93AF93BF93EF93FF933C
:103480000E94AD19FF91EF91BF91AF919F918F91E4
:103490007F916F915F914F913F912F910F900FBE50
:1034A0000F901F9018951F920F920FB60F92112434
:1034B0002F933F934F935F936F937F938F939F933C
:1034C000AF93BF93EF93FF930E94AD19FF91EF91DC
:1034D000BF91AF919F918F917F916F915F914F912C
:1034E0003F912F910F900FBE0F901F901895109243
:1034F000D2041092D10488EE93E0A0E0B0E0809373
:10350000D3049093D404A093D504B093D6042BE1B4
:1035100031E03093D0042093CF0425EC30E0309399
:10352000DC042093DB0424EC30E03093DE042093B1
:10353000DD0420EC30E03093E0042093DF0421EC44
:1035400030E03093E2042093E10422EC30E0309349
:10355000E4042093E30426EC30E03093E604209367
:10356000E5041092E8041092E9041092EA04109223
:10357000EB041092CC051092CB058093CD0590936F
:10358000CE05A093CF05B093D00589E391E0909349
:10359000CA058093C9051092DD051092DC051092D2
:1035A000DF051092DE051092E1051092E005109201
:1035B000E3051092E2058091E4058E7F8D7F809374
:1035C000E40561E082E00E949C0461E082E00E94E8
:1035D0005004EDE1F6E0E491E093D905E9E0F6E08E
:1035E000E491F0E0EE0FFF1FE350FA4F85919491C4
:1035F0009093DB058093DA0560E083E00E949C04F1
:103600008091E40581FD04C061E083E00E945004E4
:1036100083E08093D505EEE1F6E0E491E093D605F2
:10362000EAE0F6E0E491F0E0EE0FFF1FED50FA4F14
:10363000859194919093D8058093D7050E94240595
:103640006093C5057093C6058093C7059093C80520
:103650006AE074E08FEB95E00E94200D6AE074E070
:1036600089EB95E00E94200D8091A8059091A90515
:10367000A091AA05B091AB058093A4059093A505F0
:10368000A093A605B093A7058091A2059091A305EC
:103690009093A1058093A00510927B0510927A0566
:1036A0008DE291E0909379058093780588E080938E
:1036B0007C058FEF80937D0589E080937E0584E013
:1036C00080937F0585E08093800586E08093810567
:1036D00087E08093820510928305109284051092F2
:1036E0008505109286051092870581E00E943B07B0
:1036F0006AE074E082E795E00E94200D6AE074E0E1
:103700008CE695E00C94200DCF93DF93CDB7DEB718
:10371000C65AD1090FB6F894DEBF0FBECDBF78945C
:1037200084B5826084BD84B5816084BD85B58260C6
:1037300085BD85B5816085BD80916E008160809377
:103740006E001092810080918100826080938100E0
:1037500080918100816080938100809180008160F0
:10376000809380008091B10084608093B10080914B
:10377000B00081608093B00080917A008460809373
:103780007A0080917A00826080937A0080917A003A
:10379000816080937A0080917A00806880937A00BB
:1037A0001092C1000E94F3083E0121E4620E711CD8
:1037B0008091B7058111A0C38091B9049091BA049A
:1037C0001816190644F48091CE04882321F08DE662
:1037D00095E00E94F7078091B9049091BA04019690
:1037E0009093BA048093B9041092B6051092B5056F
:1037F0000E94250780E00E942D0789EC95E00E9439
:10380000D205BC01CE0101960E94C50C6091B7059E
:10381000C3010E94310D60E373E0CE018F599F4FC9
:103820000E94200DB301CE018F599F4F0E94FF0BC4
:1038300065E373E00E94E90BBE016F5F7F4F0E945A
:10384000FF0B6AE372E00E94E90BBC0188E795E098
:103850000E945005CE018F599F4F0E94560BC30105
:103860000E94560BCE0101960E94560B81E00E94E9
:103870002D076BE373E088E795E00E94F10880E094
:103880000E942D0789EC95E00E94D205BC01CE0173
:1038900001960E94C50C6091B705C3010E94310DCD
:1038A00060E373E0CE018F599F4F0E94200DB3015A
:1038B000CE018F599F4F0E94FF0B65E373E00E947A
:1038C000E90BBE016F5F7F4F0E94FF0B6AE372E05E
:1038D0000E94E90BBC0188E795E00E945005CE01EB
:1038E0008F599F4F0E94560BC3010E94560BCE0169
:1038F00001960E94560B0E9444038C016AE070E01E
:1039000080E090E00E94F20408551240083C110546
:1039100008F0B5CF6BE473E088E795E00E94F1080A
:103920008091CE04882321F081E695E00E94F7077C
:103930004091B7045091B804052E000C660B770B2C
:103940001092E3051092E2051092E1051092E00555
:103950001092DF051092DE0590E080E0FC01E95A4C
:10396000FC4F05911591259134914017510762073D
:10397000730709F09FC3FC01E55AFC4F2591349170
:103980003093DD052093DC05FC01E35AFC4F2591C3
:1039900034913093DF052093DE05FC01E15AFC4FA2
:1039A000259134913093E1052093E005FC01EF5916
:1039B000FC4F859194919093E3058093E20580916B
:1039C000E0059091E105892BB1F19091D5059631F3
:1039D00060F52091680084E0983048F031E09E3036
:1039E00008F430E081E001C0880F3A95EAF7822BB5
:1039F00080936800EDE6F0E0983050F0EBE6F0E000
:103A00009E3030F0ECE6F0E0963110F0F0E0E0E0CF
:103A10004081292F30E0983008F056C381E001C082
:103A2000880F9A95EAF7842B80838091E205909124
:103A3000E3050E940B068091B4049091B504895C63
:103A4000954091F08091E4058E7F8093E4058FB7D7
:103A5000F8941092B3041092B20429EC35E030933C
:103A6000B5042093B4048FBF6BE573E088E795E05D
:103A70000E94F1088091CE04882321F080E595E032
:103A80000E94F70760E970E080E090E00E94F20495
:103A90006BE673E088E795E00E94F1088091CE0420
:103AA000882341F08AE395E00E9401048091B604E6
:103AB0000E9486088091C304811161C0E090B60421
:103AC0008091CE04882321F080E294E00E94F707E1
:103AD000CE0101966C015C0110E000E0912C88247D
:103AE0008394F12C8091CE04882329F18CE194E019
:103AF0000E9401046AE070E0C8010E94AD088AE1FA
:103B000094E00E9401046AE070E0892D0E947F0821
:103B100080E194E00115110551F088E094E008304F
:103B2000110529F00930110521F48FEF93E00E946F
:103B300001040E94F107F50191925F01C80101960D
:103B40008A30910509F0CDC210E000E0D6018D91D8
:103B50006D0161E0813009F060E082E00E94500474
:103B60000F5F1F4F68EC70E080E090E00E94F2046D
:103B70000A30110559F789EC95E00E94C30580E0F1
:103B80000E942D0789EC95E00E94D205BC01CE0170
:103B900001960E94C50C6091B705C3010E94310DCA
:103BA00060E373E0CE018F599F4F0E94200DB30157
:103BB000CE018F599F4F0E94FF0B65E373E00E9477
:103BC000E90BBE016F5F7F4F0E94FF0B6AE372E05B
:103BD0000E94E90BBC0188E795E00E945005CE01E8
:103BE0008F599F4F0E94560BC3010E94560BCE0166
:103BF00001960E94560B83E090E0EB969FAF8EAF4C
:103C0000EB9781E00E942D076BE773E088E795E072
:103C10000E94F1088091C304882309F477C280E0F0
:103C20000E942D0789EC95E00E94D205BC01CE01CF
:103C300001960E94C50C6091B705C3010E94310D29
:103C400060E373E0CE018F599F4F0E94200DB301B6
:103C5000CE018F599F4F0E94FF0B65E373E00E94D6
:103C6000E90BBE016F5F7F4F0E94FF0B6AE372E0BA
:103C70000E94E90BBC0188E795E00E945005CE0147
:103C80008F599F4F0E94560BC3010E94560BCE01C5
:103C900001960E94560B81E00E942D076CE873E0AC
:103CA00088E795E00E94F1088091C304882309F415
:103CB00061C280E00E942D0789EC95E00E94D20548
:103CC000BC01CE0101960E94C50C6091B705C301ED
:103CD0000E94310D60E373E0CE018F599F4F0E9427
:103CE000200DB301CE018F599F4F0E94FF0B65E35A
:103CF00073E00E94E90BBE016F5F7F4F0E94FF0BD4
:103D00006AE372E00E94E90BBC0188E795E00E943B
:103D10005005CE018F599F4F0E94560BC3010E9440
:103D2000560BCE0101960E94560B81E00E942D0792
:103D30006FEB73E088E795E00E94F1088091CE0474
:103D4000882321F083ED94E00E94F70768E570E096
:103D500080E090E00E94F2048091CE04882321F05C
:103D600081EC94E00E94F70781E00E942D0760ED4E
:103D700073E088E795E00E94F10880E00E942D073B
:103D800089EC95E00E94D205BC01CE0101960E940B
:103D9000C50C6091B705C3010E94310D60E373E06B
:103DA000CE018F599F4F0E94200DB301CE018F5934
:103DB0009F4F0E94FF0B65E373E00E94E90BBE0179
:103DC0006F5F7F4F0E94FF0B6AE372E00E94E90B76
:103DD000BC0188E795E00E945005CE018F599F4FA6
:103DE0000E94560BC3010E94560BCE0101960E9401
:103DF000560B81E00E942D0761EE73E088E795E0A5
:103E00000E94F1088091CE04882321F08FEA94E08B
:103E10000E94F7078091C304882309F44DC2809162
:103E2000CE04882341F088E994E00E94F70786E8F1
:103E300094E00E94F70781E08093B70580E00E943C
:103E40002D0789EC95E00E94D205BC01CE010196B8
:103E50000E94C50C6091B705C3010E94310D60E35B
:103E600073E0CE018F599F4F0E94200DB301CE0108
:103E70008F599F4F0E94FF0B65E373E00E94E90B8F
:103E8000BE016F5F7F4F0E94FF0B6AE372E00E94EA
:103E9000E90BBC0188E795E00E945005CE018F59DF
:103EA0009F4F0E94560BC3010E94560BCE010196F4
:103EB0000E94560B81E00E942D0763E274E088E7C0
:103EC00095E00E94F1086CE270E080E090E00E94D2
:103ED000F20481E00E942D0764E374E088E795E036
:103EE0000E94F1080E9424056093C5057093C605E1
:103EF0008093C7059093C8058091C304811114C3B2
:103F000001E010E0C8010E94DD0F882309F423C1FD
:103F10000F5F1F4F04301105A9F76FE272E0CE0169
:103F20008F569F4F0E94200D6FE272E0CE018557A1
:103F30009F4F0E94200D6091B2057091B305CE0194
:103F40008B579F4F0E94C50C6091B0057091B105D1
:103F5000CE0181589F4F0E94C50C609198057091C9
:103F60009905CE0187589F4F0E94C50C609194051A
:103F700070919505CE018D589F4F0E94C50C6091A0
:103F8000A2057091A305CE0183599F4F0E94C50CD5
:103F90008091B5059091B605A9961FAE1EAEA99762
:103FA000AB961FAE1EAEAB97AD961FAE1EAEAD97D5
:103FB0004AE0BE016F5F7F4F0E940829BE016F5F1C
:103FC0007F4FCE0189599F4F0E94580CCB57DF4F2E
:103FD000A881B981C558D040FD0101900020E9F7C2
:103FE00031972F014A1A5B0AC158DF4FA881B98166
:103FF000CF57D040FD0101900020E9F731971F0114
:104000002A1A3B0AEB96AEADBFADEB97FD010190CE
:104010000020E9F731976F01CA1ADB0AE596AEADC9
:10402000BFADE597FD0101900020E9F731977F01D1
:10403000EA1AFB0AAF96AEADBFADAF97FD01019096
:104040000020E9F731974F018A1A9B0AA996AEAD75
:10405000BFADA997FD0101900020E9F731979F01BD
:104060002A1B3B0BC956DF4F39832883C759D040E1
:104070000E942405C756DF4F688379838A839B8318
:10408000C959D040A090C104B090C20431E0A31639
:10409000B10409F4AFC60CF052C3A114B10409F481
:1040A0008FC31092C2041092C1041092C0041092E7
:1040B000BF045DC30C96883A910509F04FCC10926D
:1040C000DD051092DC057BCC9E3040F42850310990
:1040D00081E001C0880F2A95EAF7A5CC2E5031095E
:1040E000F7CF982C8830910579F0992493948930F2
:1040F000910551F0970102C0359527950A95E2F791
:10410000B22FB1709B2E8B268C01ECCC21E030E0DD
:10411000AE0147585F4F63E070E0CE0183599F4F77
:104120000E94420D81117BCD81E00E942D076DE937
:1041300073E088E795E00E94F1088091CE0488231F
:1041400021F08DE195E00E94F7076CEB71E080E0D3
:1041500090E00E94F2040E94030880E090E0892B26
:1041600009F426CB0E943C04882309F41DCB0E944D
:1041700000001ACBAE968FADAE97853559F4AF9649
:104180008FADAF97813031F4E0968FADE0978A38EC
:1041900009F48FCD80E00E942D0789EC95E00E9404
:1041A000D205BC01CE0101960E94C50C6091B705F5
:1041B000C3010E94310D60E373E0CE018F599F4F20
:1041C0000E94200DB301CE018F599F4F0E94FF0B1B
:1041D00065E373E00E94E90BBE016F5F7F4F0E94B1
:1041E000FF0B6AE372E00E94E90BBC0188E795E0EF
:1041F0000E945005CE018F599F4F0E94560BC3015C
:104200000E94560BCE0101960E94560B81E00E943F
:104210002D076EEA73E088E795E00E94F10880912F
:10422000CE04882309F497CF8CE095E00E94F7072D
:1042300081E095E00E94010460E170E085E590E096
:104240000E94AD088FEF94E00E94010460E170E0ED
:1042500081E090E00E94AD088DEF94E00E9401049F
:1042600060E170E08AE890E00E94AD0885EF94E09C
:104270000E94010460E170E0AE968FADAE970E949F
:104280007F0883EF94E00E94010460E170E0AF9644
:104290008FADAF970E947F0881EF94E00E940104E8
:1042A00060E170E0E0968FADE0970E947F088FEEAE
:1042B00094E00E94F7074FCF8091CE04882321F02D
:1042C0008EE694E00E94F7076AE074E0CE01895917
:1042D0009F4F0E94200D25E0A22E24E0B22EE596ED
:1042E0001FAE1EAEE5972FEF3FEFAE014D585F4F6B
:1042F00060E470E0CE0101960E94420D182F8823E1
:1043000021F1E5968EAD9FADE597892BF1F08B817C
:10431000893009F4F3C0863F09F465C08091CE046A
:10432000882321F085E594E00E94F70781E00E9450
:104330002D0762EF73E088E795E00E94F10860EDD9
:1043400077E080E090E00E94F20410E0CE0189590D
:104350009F4F0E94560B111162CD80E00E942D07E5
:1043600089EC95E00E94D205BC01CE0101960E9425
:10437000C50C6091B705C3010E94310D60E373E085
:10438000CE018F599F4F0E94200DB301CE018F594E
:104390009F4F0E94FF0B65E373E00E94E90BBE0193
:1043A0006F5F7F4F0E94FF0B6AE372E00E94E90B90
:1043B000BC0188E795E00E945005CE018F599F4FC0
:1043C0000E94560BC3010E94560BCE0101960E941B
:1043D000560B81E00E942D0762E174E088E795E0CA
:1043E0000E94F108B8CEBE016F5F7F4FCE018F599A
:1043F0009F4F0E94200DE596EEACFFACE597B2E032
:10440000EB1AF10883E0C82ED12CE3E0EE16F1049C
:1044100020F0670193E0E92EF12C6AE074E0C3011B
:104420000E94200DA7960EAD1FADA797E016F106CE
:1044300008F5C016D10608F48601A396EEADFFADCF
:10444000A397E00FF11FD0801082A3966EAD7FADD1
:10445000A3976E0D7F1DC3016115710509F445C059
:104460000E94580CA3968EAD9FADA397080F191FFD
:10447000D801DC92F3014481558160817181CE01C4
:1044800089599F4F0E94860BC3010E94560B809151
:10449000CE04882359F00091B5051091B60583E349
:1044A00094E00E940104C8010E94E1088091B605D1
:1044B0008F938091B5058F93BF92AF927F926F9249
:1044C0000E94763064E070E0C3010E94E10E0F901C
:1044D0000F900F900F900F900F90811109C0CE0197
:1044E0008F599F4F0E94560B30CF0E94440BBACF7A
:1044F000CE018F599F4F0E94560BF1CE0091CE04F2
:10450000002309F423CF6BE074E08FEC94E00E9469
:10451000F108BE0169597F4F8FEC94E00E9450056D
:104520000E94F107102F12CF0E948B050E94952840
:1045300024E030E040E050E00E948D2C61307105B5
:104540008105910531F48091B40591E0892780932C
:10455000B4058091B2059091B30520910601222304
:1045600009F482C001969093B3058093B205883C0C
:1045700091050CF086C08091B0059091B105209115
:104580000501222309F480C0835B9F4F9093B105FE
:104590008093B0058C3B9B410CF084C080919805C2
:1045A0009091990520910401222309F47EC001967F
:1045B0009093990580939805803A91050CF082C0FC
:1045C000809194059091950520910301222309F48F
:1045D0007CC001969093950580939405803A91054F
:1045E0000CF080C081E090E0909397058093960551
:1045F0008091A2059091A30520910201222309F444
:1046000074C001969093A3058093A205C9970CF0FE
:1046100079C060919005709191058091920590917B
:10462000930520910101222309F46FC020E030E0BE
:1046300040E85FE30E94622D6093900570939105BE
:10464000809392059093930520E030E048EC51E48C
:104650000E94762E87FF1092010169EA71E080E0E6
:1046600090E00E94F20459CC01979093B305809397
:10467000B205181619060CF47ECF81E0809306016E
:104680007ACF1092060177CF8D5491099093B1059E
:104690008093B005181619060CF480CF81E0809342
:1046A00005017CCF1092050179CF01979093990570
:1046B00080939805181619060CF482CF81E0809338
:1046C00004017ECF109204017BCF01979093950552
:1046D00080939405181619060CF484CF81E080931A
:1046E000030180CF109203017DCF01979093A30522
:1046F0008093A205181619060CF48BCF81E08093E5
:10470000020187CF1092020184CF20E030E040E820
:104710005FE30E94612D60939005709391058093F3
:1047200092059093930520E030E0A9010E94692B47
:1047300018160CF492CF81E0809301018ECF82E0B5
:10474000A816B10409F40CC46DE674E093E0A91650
:10475000B10409F0A6CCCE018F569F4F0E94580C91
:104760006AE074E0CE0185579F4F0E94580CCE013D
:1047700089599F4F0E94560BCE0183599F4F0E942B
:10478000560BCE018D589F4F0E94560BCE01875875
:104790009F4F0E94560BCE0181589F4F0E94560B8F
:1047A000CE018B579F4F0E94560BCE0185579F4FCE
:1047B0000E94560BCE018F569F4F0E94560BCDCCB8
:1047C0000091BF041091C0040115110509F45FC0E8
:1047D0000130110509F069CCC090C505D090C6051F
:1047E000E090C705F090C8058091A8059091A905B3
:1047F000A091AA05B091AB05C356DF4F888399837A
:10480000AA83BB83CD59D0408091A4059091A50582
:10481000A091A605B091A705CF55DF4F8883998356
:10482000AA83BB83C15AD0408090A0059090A10577
:10483000A091A205B091A305CB55DF4FB983A88302
:10484000C55AD04010E000E0041515050CF0A4C1D5
:104850000F5F1F4FB80161507109CE018B579F4FF9
:104860000E943005482F62E070E0041515054CF4F5
:10487000C801019661E070E08415950514F470E0BC
:1048800060E0CE018F569F4F0E944105DDCFB12CD5
:10489000A12CA414B50404F5BFEFAB1ABB0AB501F3
:1048A00061507109CE018B579F4F0E943005482FF0
:1048B00062E070E0A414B5044CF4C501019661E017
:1048C00070E08415950514F470E060E0CE018F5619
:1048D0009F4F0E944105DDCF4BE464E070E0CE01C4
:1048E0008F569F4F0E9441054DE465E070E0CE0178
:1048F0008F569F4F0E94410548E466E070E0CE016C
:104900008F569F4F0E944105B12CA12CA214B304D5
:104910003CF5EFEFAE1ABE0AB50161507109CE0148
:1049200081589F4F0E943005482F6BE070E0A21421
:10493000B30484F4C50101966AE070E08215930522
:104940004CF4C501029669E070E08215930514F4F9
:1049500068E070E0CE018F569F4F0E944105D6CF90
:104960008091B0059091B105813A9F4044F04DE2AD
:104970006CE070E0CE018F569F4F0E94410542E5EA
:104980006DE070E0CE018F569F4F0E94410540E5DB
:104990006EE070E0CE018F569F4F0E9441054DE4BE
:1049A0006FE070E0CE018F569F4F0E944105B12C01
:1049B000A12CAC14BD0404F52FEFA21AB20AB50164
:1049C00061507109CE0187589F4F0E943005482FD2
:1049D00062E070E0AC14BD044CF4C501019661E0E6
:1049E00070E08C159D0514F470E060E0CE018557F1
:1049F0009F4F0E944105DDCF43E463E070E0CE01AC
:104A000085579F4F0E944105D12CC12CCE14DF0445
:104A100004F53FEFC31AD30AB60161507109CE0104
:104A20008D589F4F0E943005482F67E070E0CE14EC
:104A3000DF044CF4C601019666E070E08E159F0518
:104A400014F465E070E0CE0185579F4F0E94410548
:104A5000DDCF43E468E070E0CE0185579F4F0E94B0
:104A60004105081519059CF40F5F1F4FB8016150EF
:104A70007109CE0183599F4F0E943005482F6CE089
:104A800070E00815190544F76BE070E0E5CF4CE4E1
:104A90006DE070E0CE0185579F4F0E9441056FEB9E
:104AA00075E0CE018F569F4F0E94DB0A811125C011
:104AB0000E942D071A8219821C821B821E821D826F
:104AC000BE016F567F4FCE0101960E94090D6FE225
:104AD00072E0CE0101960E94E90BBC0188E795E0E7
:104AE0000E945005CE0101960E94560BBE016F56E2
:104AF0007F4F8FEB95E00E94090D69EB75E0CE01C9
:104B000085579F4F0E94DB0A811126C081E00E94D9
:104B10002D071A8219821C821B821E821D82BE01F1
:104B200065577F4FCE0101960E94090D6FE272E03A
:104B3000CE0101960E94E90BBC0188E795E00E9436
:104B40005005CE0101960E94560BBE0165577F4F5E
:104B500089EB95E00E94090D0E9424050091BB0499
:104B60001091BC042091BD043091BE0406171707B4
:104B70002807390708F0FBCD0E9444038C339105C8
:104B80000CF0F1C18091BF049091C0040196909304
:104B9000C0048093BF04F7C14BE464E070E0CE0131
:104BA0008F569F4F0E9441054DE465E070E0CE01B5
:104BB0008F569F4F0E94410548E466E070E0CE01A9
:104BC0008F569F4F0E94410510E000E0021513052B
:104BD00034F50F5F1F4FB80161507109CE01815844
:104BE0009F4F0E943005482F6BE070E002151305BF
:104BF00084F4C80101966AE070E0821593054CF4D4
:104C0000C801029669E070E08215930514F468E02B
:104C100070E0CE018F569F4F0E944105D7CF809103
:104C2000B0059091B105813A9F4044F04DE26CE0AF
:104C300070E0CE018F569F4F0E944105CB55DF4F4C
:104C400088819981C55AD040881A990A42E56DE059
:104C500070E0CE018F569F4F0E94410540E56EE007
:104C600070E0CE018F569F4F0E9441054DE46FE0EA
:104C700070E0CE018F569F4F0E944105C756DF4F0F
:104C8000688179818A819B81C959D0406C197D09DD
:104C90008E099F0928EE33E040E050E00E94F62C98
:104CA000CA01B9010E946E2B9B01AC0160E070E06B
:104CB00081E695E40E94CE2D6B017C01B401092CA4
:104CC000000C880B990B0E94702B9B01AC01C70153
:104CD000B6010E94CF2BAB01BC01CE0101960E9410
:104CE0008F0CC356DF4F68817981CD59D040CF55A5
:104CF000DF4FA881B981C15AD0406A1B7B0B84E683
:104D000090E00E94332D689DC001699D900D789DB3
:104D1000900D1124BC01990F880B990B0E94702BE8
:104D2000AB01BC01CE018F599F4F0E948F0CF30144
:104D3000118210821382128215821482BE016F5971
:104D40007F4FC3010E94090D65E474E0C3010E9416
:104D5000E90BBE016F5F7F4F0E94FF0B64E372E0BF
:104D60000E94E90BBC01CE0185579F4F0E94090D9F
:104D7000C3010E94560BCE018F599F4F0E94560BC4
:104D8000CE0101960E94560BC956DF4F288139810A
:104D9000C759D040A216B3060CF081CE3FEFA31A3C
:104DA000B30AB50161507109CE0189599F4F0E9424
:104DB0003005482FC956DF4F88819981C759D040A7
:104DC0006FE070E0A816B9067CF4C5010196C956DB
:104DD000DF4FA881B981C759D0406EE070E08A17D3
:104DE0009B0714F46DE070E0CE0185579F4F0E9441
:104DF0004105CACF8091BF049091C00481309105D4
:104E000089F18230910509F47CC0892B09F04DC9E4
:104E100061E070E0CE0101960E94C50C69E474E087
:104E2000C3010E94200DBE016F5F7F4FC3010E942E
:104E3000FF0B63E372E00E94E90BBC01CE018F56C9
:104E40009F4F0E94090DC3010E94560BCE0101968F
:104E50000E94560B61E574E0CE0185579F4F0E947A
:104E6000580C1DCE60E0CE0101960E94620C6CE5EC
:104E700074E0C3010E94200DBE016F5F7F4FC3012C
:104E80000E94FF0B6EE372E00E94E90B40E050E0ED
:104E900060E87FEB0E94B20BBC01CE018F569F4FA2
:104EA0000E94090DC3010E94560BCE0101960E947B
:104EB000560B60E0CE0101960E94620C6FE574E033
:104EC000C3010E94200DBE016F5F7F4FC3010E948E
:104ED000FF0B6EE372E00E94E90B40E050E060E8F7
:104EE0007FEB0E94B20BBC01CE0185579F4F0E9401
:104EF000090DC3010E94560BCE0101960E94560B6C
:104F0000CECD60E0CE0101960E94620C62E674E0B4
:104F1000C3010E94200DBE016F5F7F4FC3010E943D
:104F2000FF0B6EE372E00E94E90B40E050E060E8A6
:104F30007FEB0E94B20BBC01CE018F569F4F0E94A7
:104F4000090DC3010E94560BCE0101960E94560B1B
:104F500060E0CE0101960E94620C65E674E0B0CF7D
:104F600068E674E0F8CB883C9105E4F48091C104D4
:104F70009091C20401969093C2048093C104109250
:104F8000C0041092BF040E9424056C507E4F8F4FC6
:104F90009F4F6093BB047093BC048093BD049093B7
:104FA000BE04E5CB8039B1E09B0734F48091C104A5
:104FB0009091C2040197DFCF8835E2E09E0734F478
:104FC0008091BF049091C0040197E1CD803293405D
:104FD000D4F2CDCB8CE695E00E94560B82E795E0AB
:104FE0000E94560B89EB95E00E94560B8FEB95E0E3
:104FF0000E94560B89E391E09093CA058093C905FE
:105000002091D5052631C0F4EDE6F0E0283030F0EF
:10501000EBE6F0E02E3010F0ECE6F0E03081422FCD
:1050200050E0283050F481E090E001C0880F2A95CC
:10503000EAF780958323808308952E3048F4485002
:10504000510981E090E001C0880F4A95EAF7F1CF5D
:105050004E505109F6CFEF920F931F93CF93DF93EA
:10506000E80134E047FD34E1042E000C550B57FFF6
:1050700003C0519541955109E32E022F242FAE0113
:105080000E942229CE01DF91CF911F910F91EF90C5
:1050900008958F929F92AF92BF92CF92DF92EF923C
:1050A000FF92CF93DF93EC01688179818A819B81A4
:1050B000611571058105910521F464E279ED8BE5B7
:1050C00097E02DE133EF41E050E00E948D2C490143
:1050D0005A019B01AC01A7EAB1E40E94AC2C6B0120
:1050E0007C01ACEEB4EFA50194010E94BA2CC60E6F
:1050F000D71EE81EF91EF7FE06C081E0C81AD108C7
:10510000E10880E8F80AC882D982EA82FB82C701F6
:10511000B6019F77DF91CF91FF90EF90DF90CF9016
:10512000BF90AF909F908F9008958F929F92AF9273
:10513000BF92CF92DF92EF92FF9260910701709140
:1051400008018091090190910A016115710581059D
:10515000910521F464E279ED8BE597E02DE133EFE1
:1051600041E050E00E948D2C49015A019B01AC01A5
:10517000A7EAB1E40E94AC2C6B017C01ACEEB4EF69
:10518000A50194010E94BA2CC60ED71EE81EF91E76
:10519000F7FE06C081E0C81AD108E10880E8F80AE5
:1051A000C0920701D0920801E0920901F0920A0131
:1051B000C701B6019F77FF90EF90DF90CF90BF902F
:1051C000AF909F908F9008956093070170930801AE
:1051D0008093090190930A010895FB01DC01059079
:1051E0000D920020E1F70895FC0105900020E9F7F9
:1051F000809590958E0F9F1F0895BB274A3031F4FC
:10520000992322F4BDE2909581959F4F0C94092932
:10521000BB27FB015527AA27880F991FAA1FA41790
:1052200010F0A41B83955051B9F7A05DAA3308F084
:10523000A95DA193009779F7B111B1931192CB01B8
:105240000C94592BA9E0B0E0E8E2F9E20C94C52CEB
:105250006A01F22EB02E102FFBE3AF2EA01608F439
:105260001BE31F5F012F27E0AE014F5F5F4F0E94DE
:10527000812ABC018981982F9970913009F43FC02F
:105280009BE2E1FC04C09E2D9170E0FC3AC05E2DD3
:105290005071E82FE87083FF46C084E0911101C08F
:1052A00083E0EF2DE81B8F1508F0E0E0D6018E2F8C
:1052B00020E2552351F1992329F0D6019C93C60190
:1052C00001966C0196012D5F3F4FE2FE24C08EE4F3
:1052D000D6018C9391E411969C93119712968C931E
:1052E000D9018E2F90E281111BC0E20FF32FF11D27
:1052F00010828EEF9FEF2996ECE00C94E12C9DE25A
:10530000C6CF90E2C4CF2D9381508111FCCFCE0E39
:10531000D11CE0E0D0CF8EE6D6018C9391E6DBCFB6
:105320009D938150E0CF482F447082FF3DC084E0C0
:10533000911101C083E08F1510F4EF2DE81BD60109
:105340008E2F20E2552309F1992329F0D6019C9351
:10535000C60101966C0196012D5F3F4FE2FE1BC016
:1053600089E4D6018C938EE411968C93119786E490
:1053700012968C93D9018E2F90E2882309F4B5CF31
:105380009D938150FACF2D9381508111FCCFCE0E89
:10539000D11CE0E0D9CF89E6D6018C938EE6119638
:1053A0008C93119786E6E4CF9B0177FF02C030E033
:1053B00020E0A1E0B0E0911102C0B0E0A0E0F9016E
:1053C0003196AE0FBF1F8B2C912CBB2009F461C00E
:1053D0005401EFEFAE1ABE0AAA0DBB1DFA161B064A
:1053E00019F014F04F2D4A1B511188C0E3FC59C02D
:1053F0007601A42FB0E2A1114FC0C40ED11C992395
:1054000009F45BC040E0D6011196F60190836D016E
:10541000552309F448C0012F060F9A81582F507167
:1054200084FF03C0913309F4015010160CF047C0FB
:10543000093008F008E0EEE2FE2E5B01A01AB10888
:1054400085019194819491082F3F320729F4D60168
:10545000FC92F60131966F016217730794F10217FF
:1054600013077CF5DB01A21BB30BAA24A394B12C78
:10547000AC0EBD1EAA0DBB1D11968C912150310999
:10548000D601119628153905F4F0F60180836D01D7
:10549000DBCFB12CA12CA0CFF701B1937F01A1509C
:1054A000AACF9111B0CFD601942F50E302C05D93E3
:1054B00091509111FCCFC40ED11C40E0ACCF01E063
:1054C000BACF80E3DBCF6217730731F4963388F4E9
:1054D000953311F4552369F0F6018083FD01842F83
:1054E00090E2811108C0A40FB11D1C9290E080E0F1
:1054F00002CF81E3F1CF91938150F3CF911183CF0C
:105500008ACF283008F027E03327DA01990F311DC0
:1055100087FD916000966105710539F432602E5F58
:105520003D9330E32A95E1F708959F3F30F08038AE
:105530007105610509F03C5F3C5F3D93913008F0D7
:105540008068911DDF93CF931F930F93FF92EF928B
:10555000192F987F9695E92F96959695E90FFF2735
:10556000EE53FF4F99273327EE24FF24A701E701CD
:1055700005900894079428F4360FE71EF81E491F7B
:10558000511D660F771F881F991F0694A1F705907C
:10559000079428F4E70EF81E491F561FC11D770F08
:1055A000881F991F661F0694A1F70590079428F499
:1055B000F80E491F561FC71FD11D880F991F661F60
:1055C000771F0694A1F70590079420F4490F561F02
:1055D000C71FD81F990F661F771F881F0694A9F74A
:1055E00084911095177041F0D695C79557954795BA
:1055F000F794E7941A95C1F7E8E6F0E068941590FF
:10560000159135916591959105907FE27395E1181B
:10561000F10A430B560BC90BD009C0F7E10CF11E80
:10562000431F561FC91FD01D7EF4703311F48A9595
:10563000E6CFE894015030F0080F0AF40027021773
:1056400008F4202F2395022F7A3328F079E37D93F5
:105650002A95E9F710C07D932A9589F606949795C7
:105660006795379517951794E118F10A430B560B78
:10567000C90BD00998F023957E9173957A3308F081
:1056800070E37C932013B8F77E9170617D9330F0C6
:10569000839571E37D9370E32A95E1F71124EF90F0
:1056A000FF900F911F91CF91DF91992787FD9095E2
:1056B0000895DC01FC01672F71917723E1F73297A0
:1056C00004C07C916D9370836291AE17BF07C8F3DD
:1056D00008950E94AB2B08F481E00895E89409C076
:1056E00097FB3EF490958095709561957F4F8F4F15
:1056F0009F4F9923A9F0F92F96E9BB279395F6952B
:10570000879577956795B795F111F8CFFAF4BB0FA8
:1057100011F460FF1BC06F5F7F4F8F4F9F4F16C00C
:10572000882311F096E911C0772321F09EE8872F96
:10573000762F05C0662371F096E8862F70E060E052
:105740002AF09A95660F771F881FDAF7880F9695CB
:10575000879597F90895990F0008550FAA0BE0E86F
:10576000FEEF16161706E807F907C0F01216130623
:10577000E407F50798F0621B730B840B950B39F463
:105780000A2661F0232B242B252B21F408950A26C9
:1057900009F4A140A6958FEF811D811D08950E94F7
:1057A000E22B0C94532C0E94452C38F00E944C2C78
:1057B00020F0952311F00C943C2C0C94422C1124D5
:1057C0000C94872C0E94642C70F3959FC1F3950F65
:1057D00050E0551F629FF001729FBB27F00DB11D75
:1057E000639FAA27F00DB11DAA1F649F6627B00D05
:1057F000A11D661F829F2227B00DA11D621F739FEE
:10580000B00DA11D621F839FA00D611D221F749FFB
:105810003327A00D611D231F849F600D211D822F42
:10582000762F6A2F11249F5750409AF0F1F0882369
:105830004AF0EE0FFF1FBB1F661F771F881F915096
:105840005040A9F79E3F510580F00C943C2C0C94DD
:10585000872C5F3FE4F3983ED4F386957795679560
:10586000B795F795E7959F5FC1F7FE2B880F911DC0
:105870009695879597F9089597F99F6780E870E066
:1058800060E008959FEF80EC089500240A941616B6
:10589000170618060906089500240A94121613061E
:1058A000140605060895092E0394000C11F48823AC
:1058B00052F0BB0F40F4BF2B11F460FF04C06F5FC8
:1058C0007F4F8F4F9F4F089557FD9058440F551F9E
:1058D00059F05F3F71F04795880F97FB991F61F072
:1058E0009F3F79F087950895121613061406551FE9
:1058F000F2CF4695F1DF08C0161617061806991F55
:10590000F1CF86957105610508940895E894BB2749
:1059100066277727CB0197F90895052E97FB1EF48C
:1059200000940E94A42C57FD07D00E94F62C07FC7F
:1059300003D04EF40C94A42C5095409530952195AD
:105940003F4F4F4F5F4F08959095809570956195AB
:105950007F4F8F4F9F4F08950E94182DA59F900D48
:10596000B49F900DA49F800D911D11240895B7FF41
:105970000C94AC2C0E94AC2C821B930B08952F929C
:105980003F924F925F926F927F928F929F92AF92CF
:10599000BF92CF92DF92EF92FF920F931F93CF931C
:1059A000DF93CDB7DEB7CA1BDB0B0FB6F894DEBFB3
:1059B0000FBECDBF09942A88398848885F846E84D9
:1059C0007D848C849B84AA84B984C884DF80EE8023
:1059D000FD800C811B81AA81B981CE0FD11D0FB62C
:1059E000F894DEBF0FBECDBFED010895A1E21A2EDF
:1059F000AA1BBB1BFD010DC0AA1FBB1FEE1FFF1F73
:105A0000A217B307E407F50720F0A21BB30BE40BC2
:105A1000F50B661F771F881F991F1A9469F7609509
:105A20007095809590959B01AC01BD01CF010895C3
:105A3000A29FB001B39FC001A39F700D811D1124CF
:105A4000911DB29F700D811D1124911D0895991B08
:105A500079E004C0991F961708F0961B881F7A9565
:105A6000C9F78095089597FB072E16F4009407D088
:105A700077FD09D00E944D2D07FC05D03EF490958E
:105A800081959F4F0895709561957F4F0895EE0F12
:105A9000FF1F0590F491E02D0994AA1BBB1B51E157
:105AA00007C0AA1FBB1FA617B70710F0A61BB70B8E
:105AB000881F991F5A95A9F780959095BC01CD0133
:105AC00008955058BB27AA270E94792D0C94532C77
:105AD0000E94452C38F00E944C2C20F039F49F3F56
