:100000000C94A7010C94CF010C94CF010C94C00B5D
:100010000C94660C0C94420C0C94CF010C94CF0100
:100020000C94CF010C94CF010C94CF010C94CF0110
:100030000C94CF010C94CF010C94CF010C94CF0100
:100040000C94760B0C94CF010C94CF010C94CF013F
:100050000C94CF010C94CF010C94CF010C94CF01E0
:100060000C94CF010C94CF0100407A10F35A00A0F9
:10007000724E18090010A5D4E80000E87648170071
:1000800000E40B54020000CA9A3B000000E1F505B1
:10009000000080969800000040420F000000A086FB
:1000A00001000000102700000000E803000000002D
:1000B0006400000000000A000000000001000000D1
:1000C00000002C76D888DC674F0823DFC1DFAE59EB
:1000D000E1B1B796E5E3E453C63AE651997696E87E
:1000E000E6C28426EB898C9B62ED407C6FFCEFBC02
:1000F0009C9F40F2BAA56FA5F490055A2AF75C932D
:100100006B6CF9676DC11BFCE0E40D47FEF520E662
:10011000B500D0ED902E0300943577050080841E45
:10012000080000204E0A000000C80C333333330FA0
:10013000986E12831141EF8D2114893BE65516CF3D
:10014000FEE6DB18D1844B381BF77C1D901DA4BB49
:10015000E424203284725E228100C9F124ECA1E5FE
:100160003D270000000023002600290000C20100F6
:100170000100110011000C0000E100000A00250040
:1001800025002100009600001900390039003600D2
:10019000127A00001F0046004600440080700000F4
:1001A00022004D004D004A00004B00003600750053
:1001B00075007200403800004A009C009C009900C5
:1001C000A02800006A00DA00DA00D70080250000CD
:1001D0007200EC00EC00E900C0120000E900DA0156
:1001E000DA01D70160090000D701B603B603B303F3
:1001F000B0040000B3036E076E076B0758020000DF
:100200006E07DC0EDC0ED80E2C010000DC0EC11DCA
:10021000C11DBE1D6D2F735E3200426172006465A8
:10022000672F73004465670056006D6D004F686D61
:1002300000530073656300672F73005753430057E3
:100240005343007300636F756E7400672F73004E25
:100250006D006D672F68006D626172006D672F68B9
:100260000020006D7300446567206B2F770020002D
:1002700056004B770041680041006D672F680044CD
:100280006567206B2F77006B6D006C2F68006B57D4
:1002900000252500C2B04300446567206B2F77001E
:1002A0002000C2B0004300672F73004100252500E5
:1002B0006D730056002525006C006D626172006D43
:1002C0007300626172006D6D004F686D0020005711
:1002D00041524D00434F4C44004465670020006B81
:1002E0006D2F68005600C2B043004154444300449F
:1002F00065670025250072706D0000000000240075
:1003000027002A0000000000250028002B0004041C
:1003100004040404040402020202020203030303AD
:100320000303010204081020408001020408102089
:100330000102040810200000000800020100000370
:10034000040700000000000000001A20E92011242A
:100350001FBECFEFD8E0DEBFCDBF14E0A0E0B1E01C
:10036000E6E4F8E502C005900D92AC33B107D9F789
:1003700025E0ACE3B4E001C01D92A431B207E1F77F
:1003800011E0C6EAD1E004C02197FE010E94462692
:10039000C53AD107C9F70E948A0C0C94162C0C940C
:1003A000000080E480937C0080917A0080648093D8
:1003B0007A0080917A0086FDFCCF80917800909140
:1003C0007900089590E0FC01EA5CFC4F2491FC0167
:1003D000EE5DFC4F3491FC01E25FFC4FE491EE23B3
:1003E000C9F0222339F0233001F1A8F4213019F1AA
:1003F000223029F1F0E0EE0FFF1FEC5FFC4FA591DA
:10040000B4918FB7F894EC91611126C030953E23DA
:100410003C938FBF08952730A9F02830C9F02430CD
:1004200049F7809180008F7D03C0809180008F7795
:1004300080938000DFCF84B58F7784BDDBCF84B518
:100440008F7DFBCF8091B0008F778093B000D2CFAB
:100450008091B0008F7DF9CF3E2BDACFCF93DF9321
:1004600090E0FC01EE5DFC4F2491825F9C4FFC010B
:1004700084918823D1F090E0880F991FFC01E65009
:10048000FD4FA591B491FC01EC5FFC4FC591D49157
:1004900061110EC09FB7F8948C91E22FE0958E23E6
:1004A0008C932881E223E8839FBFDF91CF91089549
:1004B0008FB7F894EC91E22BEC938FBFF6CF3FB758
:1004C000F8948091D5049091D604A091D704B0916E
:1004D000D80426B5A89B05C02F3F19F00196A11D91
:1004E000B11D3FBFBA2FA92F982F8827BC01CD017E
:1004F000620F711D811D911D42E0660F771F881FDD
:10050000991F4A95D1F708958F929F92AF92BF920B
:10051000CF92DF92EF92FF924B015C010E945F024B
:100520006B017C010E945F026C197D098E099F0995
:10053000683E734081059105A8F321E0821A910875
:10054000A108B10888EEC80E83E0D81EE11CF11C9A
:1005500081149104A104B10429F7FF90EF90DF907A
:10056000CF90BF90AF909F908F9008952FB7F89441
:100570006091D1047091D2048091D3049091D404FD
:100580002FBF0895FC01248135816217730748F459
:1005900080819181009729F0860F971FFC0180814F
:1005A000089580E00895DC0114962D913C911597F3
:1005B0006217730728F4ED91FC91E60FF71F408353
:1005C00008950895AF92BF92CF92DF92EF92FF927B
:1005D0000F931F93CF93DF936C017B018B01040F6B
:1005E000151FEB015E01AE18BF08C017D10759F007
:1005F0006991D601ED91FC910190F081E02DC60149
:100600000995892B79F7C501DF91CF911F910F9142
:10061000FF90EF90DF90CF90BF90AF900895FC01D6
:10062000448155816081718188EF94E00C94E202ED
:100630006CEA7DE080E090E00E9484021092DA048F
:100640001092D9041092CF041092C1041092C204E7
:100650001092C3041092C4041092B9041092BA0408
:100660001092BB041092BC041092B8041092B7040C
:10067000109288048FEF809300011092B4041092BE
:10068000B3041092B6041092B50408958091D90471
:100690009091DA048F3F910528F01092DA041092BD
:1006A000D904089501969093DA048093D9040895AB
:1006B000DC015196ED91FC915297908150968C916E
:1006C000809589238083089520918B0430918C0438
:1006D0002817390781F49091890480918A0498172A
:1006E00051F0E0918904F0E0E45CFB4F8081082E3A
:1006F000000C990B08958FEF9FEF089520918B04C4
:1007000030918C042817390739F48FB7F894109278
:100710008A04109289048FBF089520918B04309130
:100720008C042817390771F480918A042091890478
:1007300090E0805C9F4F821B910960E470E00E9412
:100740003226089590E080E0089520918B04309146
:100750008C0428173907B9F49091890480918A0490
:10076000981789F0E0918904F0E0E45CFB4F808108
:100770002091890430E02F5F3F4F2F733327209360
:10078000890490E008958FEF9FEF0895CF92DF9254
:10079000EF92FF920E94B6026B017C0128EEC20E1E
:1007A00023E0D21EE11CF11C8CED94E00E948D032D
:1007B000892B79F40E94B6026C157D058E059F0584
:1007C00098F30E9418038FEFFF90EF90DF90CF9087
:1007D00008958CED94E00E94A503F6CF20E00197E8
:1007E0002FEF8F3F9207D9F7089590E080E00895AA
:1007F000FC0101900020E9F73197AF01481B590B2C
:10080000BC0188EF94E00C94E202DF92EF92FF9239
:100810000F931F93CF93DF93EC01898D9A8D892BD2
:1008200071F481E090E09B838A8390E080E0DF9127
:10083000CF911F910F91FF90EF90DF900895162FA9
:10084000DFB6F8948B8D81FD29C0CE010E9458033C
:10085000898D9A8D05960E94EE038B8D98E0E92E86
:10086000F12C01E081FF28C0812F8023F1F0CE011F
:100870000E945803898D9A8D0E94EE03000F81E03B
:10088000E81AF10889F7CE010E945803DFBE898D6E
:100890009A8D0E94EE0381E090E0C9CFE989FA8940
:1008A00080819889892B8083D3CFE989FA898081D7
:1008B0009889892B8083DECF812F8023B1F0E9894D
:1008C000FA8980819889892B8083898D9A8D0E94ED
:1008D000EE03000F81E0E81AF10871F7E989FA895F
:1008E00080819889892B8083D1CFCE010E945803C3
:1008F000ECCFCF93DF93EC0160E08E810E94E201A8
:1009000061E08E810E94E20160E08E810E94E2013E
:100910008BE891E00197F1F7DF91CF910895CF92A5
:10092000DF92EF92FF920F931F93CF93DF936C01AF
:100930007C0187E0E80EF11CD0E0C0E0062F10E05B
:10094000B8010C2E02C0759567950A94E2F76170A4
:10095000F70181917F010E94E2012196C430D10507
:1009600079F7C601DF91CF911F910F91FF90EF9022
:10097000DF90CF900C947904CF92DF92EF92FF92A8
:100980000F931F93CF93DF93EC01F62E642F8C818E
:100990000E94E2018D818F3F19F060E00E94E20128
:1009A0000F2D10E08F8584FF25C06E0187E0C80EF3
:1009B000D11CF12CE12CB8010E2C02C07595679565
:1009C0000A94E2F76170F60181916F010E94E201E1
:1009D000FFEFEF1AFF0A88E0E816F10461F7CE0195
:1009E000DF91CF911F910F91FF90EF90DF90CF900B
:1009F0000C947904B80184E0759567958A95E1F7C0
:100A0000CE010E948F046F2DCE01DF91CF911F91F7
:100A10000F91FF90EF90DF90CF900C948F0440E007
:100A2000682F88EF94E00C94BC0481E00E940F05CD
:100A30008BE39FE10197F1F7089590910B058917DA
:100A400010F08FEF890FE82FF0E0E850FB4F84891A
:100A500080680C940F05CF93DF93823029F4909136
:100A6000070598609093070580930B0510920C057D
:100A700080E480930D0580E180930E0580E58093EE
:100A80000F0561E08091FC040E942E028091FD041C
:100A90008F3F19F061E00E942E0261E08091FE0418
:100AA0000E942E02C8EFD4E09E01285F344080915E
:100AB000070584FD0BC084E090E0219628173907D4
:100AC00044F461E08E810E942E02EECF88E090E037
:100AD000F4CF8BE39DE00197F1F760E08091FC0497
:100AE0000E94E20160E08091FE040E94E201809198
:100AF000FD048F3F19F060E00E94E201809107053C
:100B000084FD34C063E088EF94E00E948F04CBE45E
:100B1000D6E4CE010197F1F763E088EF94E00E94FC
:100B20008F042197F1F763E088EF94E00E948F042F
:100B300083E592E00197F1F762E088EF94E00E948C
:100B40008F048091070580620E940F0584E08093E6
:100B500008058CE00E940F050E94150582E0809335
:100B6000090586E0DF91CF910C940F0580620E9409
:100B70000F058BE496E40197F1F7809107058062F9
:100B80000E940F0583E592E00197F1F78091070538
:100B900080620E940F05D5CFCF93DF9382E00E9441
:100BA0002B050E94150561E082E00E942E0261E0A3
:100BB00082E00E94E2010E94150580E00E941D056E
:100BC00086E391E00E94F80381E00E941D0580E425
:100BD00091E00E94F80364EA75E080E090E00E94F2
:100BE00084020E94150580E00E941D0580E591E0C9
:100BF0000E94F80381E00E941D058FE591E00E94AC
:100C0000F8030E94D101C0E08C3391053CF080597B
:100C10009140C1E0883C910508F0CFEF6AE070E0B8
:100C200080E090E00E948402CF3F59F380E791E09A
:100C3000CC2311F081E891E00E94F8036BE272E0AE
:100C400080E090E00E9484020E94150580E00E94EE
:100C50001D0582E991E00E94F80381E00E941D05D4
:100C600083EA91E00E94F8030E94D101C1E08C3335
:100C7000910544F080599140C1E0883C910508F409
:100C8000C0E0C1956AE070E080E090E00E948402DC
:100C9000CF3F51F3C1118BC084EB91E00E94F80368
:100CA000109207016BE272E080E090E00E94840203
:100CB0000E94150580E00E941D0586ED91E00E94CE
:100CC000F80381E00E941D0587EE91E00E94F80381
:100CD0000E94D101C0EAD8E28C33910574F0C0E8DB
:100CE000D5E2883C91054CF080599140C0ECD2E1AE
:100CF000883C910510F0D0E0C0E06AE070E080E050
:100D000090E00E948402209719F3C03C82E1D8074A
:100D100009F055C080E00E941D0588EF91E00E9417
:100D2000F80381E00E941D0589E092E00E94F8032B
:100D3000D0938F04C0938E046BE272E080E090E069
:100D40000E9484020E94150580E00E941D058DE32B
:100D500092E00E94F80381E00E941D058EE492E07B
:100D60000E94F8030E94D101C1E18C3391053CF04F
:100D700080599140C1E0883C910508F0C0E06AE0EC
:100D800070E080E090E00E948402CC2359F3C130EF
:100D9000A1F58FE592E00E94F803C0938D046BE209
:100DA00072E080E090E0DF91CF910C94840285ECBA
:100DB00091E00E94F80381E08093070173CFC0386F
:100DC00085E2D80731F481E00E941D058BE192E0B5
:100DD000ADCFC03A88E2D80769F480E00E941D05D3
:100DE00088EF91E00E94F80381E00E941D058CE2EB
:100DF00092E09CCF0E94CC059BCFC13141F480E7AB
:100E000092E00E94F80387E180938D04C8CF0E948E
:100E1000CC05C5CF41E00E94BC0481E090E008957C
:100E2000FC0124813581FB0144815581241735075C
:100E3000E1F4FC0180819181FB0160817181009767
:100E4000D1F061157105A1F4232BC1F0FC01808163
:100E500090E008C0232B91F0FB01808190E09195F8
:100E60008195910921E0892B09F020E0822F0895D6
:100E70000E946529F7CF6115710561F721E0F6CF72
:100E80000F931F93CF93DF938C01EB01FC018081C3
:100E900091810097E1F06881798161157105A9F070
:100EA000428153812C813D814217530770F00E948B
:100EB0006E298C819D81F801958384831D821C821B
:100EC000DF91CF911F910F9108950E94162888817C
:100ED0009981F801918380838A819B8193838283A6
:100EE0008C819D8195838483198218821B821A824A
:100EF000E5CFCF93DF93EC0188819981009711F0C2
:100F00000E941628198218821D821C821B821A8256
:100F1000DF91CF910895FC0180819181009711F0BC
:100F20000C94162808950F931F93CF93DF93EC0131
:100F300088819981009759F02A813B8126173707CC
:100F400030F081E0DF91CF911F910F9108958B01D7
:100F50006F5F7F4F0E949F28009759F09983888385
:100F60001B830A832C813D81232B59F7FC011082BE
:100F7000E8CF80E0E7CFEF92FF920F931F93CF93DC
:100F8000DF936115710541F480E0DF91CF911F91EE
:100F90000F91FF90EF90089541155105B1F07B013D
:100FA000EC010C811D81040F151FB8010E949307ED
:100FB000882351F3288139818C819D81B701820F6B
:100FC000931F0E946E291D830C8381E0DECFEF9278
:100FD000FF920F931F93CF93DF93CDB7DEB7649744
:100FE0000FB6F894DEBF0FBECDBF7C01CB01BA01B6
:100FF0008E010F5F1F4F22E044E00E942A21FC0176
:1010000001900020E9F73197AF01481B590BBC0153
:10101000C7010E94BB07811103C0C7010E94790765
:10102000C70164960FB6F894DEBF0FBECDBFDF9147
:10103000CF911F910F91FF90EF900895CF93DF9381
:10104000EC01FB0101900020E9F73197AF01461B4D
:10105000570B0E94BB07811103C0CE010E94790784
:10106000CE01DF91CF910895CF93DF93EC01FB0187
:1010700044815581608171810E94BB07811103C049
:10108000CE010E947907CE01DF91CF910895EF92B2
:10109000FF920F931F93CF93DF93EC018B01CB0152
:1010A0000E94F3217C01BC01CE010E9493078111B3
:1010B0000BC0CE010E947907CE01DF91CF911F9125
:1010C0000F91FF90EF900895FD82EC82B801888126
:1010D00099810E94EC21F0CFEF92FF920F931F9322
:1010E000CF93DF93EC017B018A01BA010E94930741
:1010F00081110BC0CE010E947907CE01DF91CF9103
:101100001F910F91FF90EF9008951D830C83B701FD
:10111000888199810E946E29F0CFFB010190002007
:10112000E9F73197AF01461B570B0C946C080F93EE
:101130001F93CF93DF93CDB7DEB729970FB6F894FF
:10114000DEBF0FBECDBF8C01862FF8011182108249
:1011500013821282158214824AE0BE016F5F7F4FB4
:1011600090E00E940722BE016F5F7F4FC8010E947E
:101170008D0829960FB6F894DEBF0FBECDBFDF9164
:10118000CF911F910F9108950F931F93CF93DF93EA
:10119000CDB7DEB762970FB6F894DEBF0FBECDBFF6
:1011A0008C01CB01F8011182108213821282158208
:1011B00014824AE0BE016F5F7F4F0E94FC21BE0196
:1011C0006F5F7F4FC8010E948D0862960FB6F8943A
:1011D000DEBF0FBECDBFDF91CF911F910F9108955C
:1011E000EF92FF920F931F93CF93DF93CDB7DEB7AC
:1011F000A1970FB6F894DEBF0FBECDBF7C01CB0127
:10120000BA01F701118210821382128215821482B0
:101210008E010F5F1F4F22E044E00E942A210097B9
:1012200089F0BC01C7010E948D08A1960FB6F89401
:10123000DEBF0FBECDBFDF91CF911F910F91FF9009
:10124000EF900895C7010E947907EFCFCF93DF9306
:1012500000D0CDB7DEB7FC0111821082138212825A
:101260001582148269831A82BE016F5F7F4F0E94CC
:101270008D080F900F90DF91CF910895CF93DF935A
:10128000EC01FB018617970749F0608171816115B8
:10129000710541F0448155810E946C08CE01DF91B7
:1012A000CF9108950E947907F9CFFC011182108235
:1012B0001382128215821482FB0101900020E9F74B
:1012C0003197AF01461B570B0C946C08CF93DF93FB
:1012D000EC01662349F061EA73E0CE010E945509F2
:1012E000CE01DF91CF9108956CED73E0F6CF2F9290
:1012F0003F924F925F926F927F928F929F92AF92A6
:10130000BF92CF92DF92EF92FF920F931F93CF93F2
:10131000DF93CDB7DEB76C970FB6F894DEBF0FBE84
:10132000CDBF5C016B017A014901FA018081918195
:10133000009759F1681779070CF07FC081E00E948F
:101340001D0581E892E00E94F80368EE73E080E0FA
:1013500090E00E94840280E06C960FB6F894DEBFA5
:101360000FBECDBFDF91CF911F910F91FF90EF90F6
:10137000DF90CF90BF90AF909F908F907F906F90B5
:101380005F904F903F902F900895332433940E94A4
:10139000B6022B013C01F8EE4F0EF3E05F1E611C1C
:1013A000711C10E000E08CED94E00E948D03892B0D
:1013B00009F47EC00E94C603282EF501E00FF11F3C
:1013C00080830F5F1F4FF70180819181892B19F571
:1013D0000130110501F5F1E08F16910409F041C0CB
:1013E0008CED94E00E948D03892BD9F181E00E945D
:1013F0001D0582E992E00E94F80381E08093DB04FE
:1014000086E090E0F7019183808380819181C81606
:10141000D9060CF493CF8091DB04882331F101309D
:101420001105E1F003301105D1F004301105B1F0E0
:1014300006301105A1F0832D12C0312CA8CF011563
:10144000110509F4B0CFF7018081918180179107D0
:1014500009F0A9CF0E94460381E07ECF80E0382EBC
:10146000A2CF822D90E00196CDCFF70180819181AE
:10147000311010C00817190781F465E070E080E0B2
:1014800090E00E948402622D60958CED94E00E94B1
:10149000050403C00817190784F30E94B6022B0144
:1014A0003C01F8EE4F0EF3E05F1E611C711CC3CFD0
:1014B0000E94B602641575058605970508F4BFCF2E
:1014C0000E94B6026B017C0181E00E941D056CEC5C
:1014D00073E0CE0147960E945509C701B601641911
:1014E0007509860997090E946D2420E030E04AE7DB
:1014F00054E40E94CD268E010F5F1F4F22E044E08E
:101500000E942A21B801CE0141960E945509BE01D0
:101510006F5E7F4FCE0147960E944007CE014196F5
:101520000E948B0764EA72E0C8010E945509BE015F
:10153000695E7F4FC8010E9434086EEA72E00E9423
:101540001E080E940F03C8010E948B07CE01479618
:101550000E948B0760ED77E080E090E0FACE7F920A
:101560008F929F92AF92BF92CF92DF92EF92FF92B3
:101570000F931F93CF93DF93CDB7DEB762970FB66C
:10158000F894DEBF0FBECDBF6B015C0110E000E040
:101590004B0181E0881A9108F501F1905F0165E047
:1015A00070E080E090E00E9484026F2D8CED94E06A
:1015B0000E940504081519050CF08EC00E94C60390
:1015C000E82E7F2C7094781609F486C080E00E9483
:1015D0001D056E2DCE010D960E942609672DCE01A8
:1015E00007960E94260962EB72E0CE0101960E94E6
:1015F0005509BE01695F7F4FCE0101960E943408F4
:1016000069EB72E00E941E08BE01635F7F4F0E947B
:101610003408BC0182E894E00E943E09CE010196A4
:101620000E948B07CE0107960E948B07CE010D9674
:101630000E948B0761EC72E08CE794E00E948D08B9
:101640006E2DCE010D960E9426096F2DCE010796B4
:101650000E94260962EB72E0CE0101960E945509B4
:10166000BE01695F7F4FCE0101960E94340869EB8D
:1016700072E00E941E08BE01635F7F4F0E94340823
:101680000E940F03CE0101960E948B07CE010796A0
:101690000E948B07CE010D960E948B0781E00E946D
:1016A0001D0581EC92E00E94F8030E94180380E07F
:1016B00062960FB6F894DEBF0FBECDBFDF91CF911B
:1016C0001F910F91FF90EF90DF90CF90BF90AF9060
:1016D0009F908F907F9008950F5F1F4FC016D10687
:1016E00009F05ACF0E94460381E0E2CF1F920F9289
:1016F0000FB60F9211242F933F938F939F93AF9325
:10170000BF938091D1049091D204A091D304B09161
:10171000D4043091D00423E0230F2D3758F50196DF
:10172000A11DB11D2093D0048093D1049093D204C5
:10173000A093D304B093D4048091D5049091D6049F
:10174000A091D704B091D8040196A11DB11D80933A
:10175000D5049093D604A093D704B093D804BF9136
:10176000AF919F918F913F912F910F900FBE0F904E
:101770001F90189526E8230F0296A11DB11DD2CF08
:101780001F920F920FB60F921124EF92FF920F93B8
:101790001F932F933F934F935F936F937F938F93F9
:1017A0009F93AF93BF93CF93DF93EF93FF93C0913A
:1017B0008B04D0918C04209749F0EE85FF859D85A0
:1017C0008B8D81FF1AC080818923D1F4FF91EF9125
:1017D000DF91CF91BF91AF919F918F917F916F9149
:1017E0005F914F913F912F911F910F91FF90EF903B
:1017F0000F900FBE0F901F9018958081892331F7AD
:101800008B899C890E94EE0388E0E82EF12C10E081
:1018100001E08D899E890E94EE03EE85FF8580811F
:101820009D85892339F1102B000F81E0E81AF1081A
:1018300081F78F89988D0E94EE038B8D81FD109525
:1018400080918A042091890490E001968F739927F2
:101850002817190699F0E0918A04F0E0E45CFB4F48
:10186000108380918A0490E001968F73992780936A
:101870008A04ACCF802F80951823D6CF8B8D8160C2
:101880008B8FA4CF1F920F920FB60F9211242F931C
:101890003F934F935F936F937F938F939F93AF93F8
:1018A000BF93EF93FF930E94C00BFF91EF91BF9105
:1018B000AF919F918F917F916F915F914F913F91E8
:1018C0002F910F900FBE0F901F9018951F920F929F
:1018D0000FB60F9211242F933F934F935F936F9303
:1018E0007F938F939F93AF93BF93EF93FF930E9448
:1018F000C00BFF91EF91BF91AF919F918F917F911D
:101900006F915F914F913F912F910F900FBE0F906C
:101910001F901895CF93DF93CDB7DEB7C45CD10984
:101920000FB6F894DEBF0FBECDBF789484B5826049
:1019300084BD84B5816084BD85B5826085BD85B573
:10194000816085BD80916E00816080936E001092F1
:10195000810080918100826080938100809181006C
:1019600081608093810080918000816080938000FD
:101970008091B10084608093B1008091B00081605B
:101980008093B00080917A00846080937A00809187
:101990007A00826080937A0080917A0081608093DF
:1019A0007A0080917A00806880937A001092C1005A
:1019B0000E94CC057090CF0471109BC3809190045D
:1019C00090919104019690939104809390041092C9
:1019D000DA041092D9040E94150580E00E941D05CA
:1019E0008CED94E00E948D03BC01CE0101960E9413
:1019F000C4088E010F5B1F4F6091CF04C8010E9485
:101A0000660960ED72E0CE018F579F4F0E94550925
:101A1000B801CE018F579F4F0E94340865ED72E0E8
:101A20000E941E08BE016F5F7F4F0E94340866E26D
:101A300072E00E941E080E940F03CE018F579F4F35
:101A40000E948B07C8010E948B07CE0101960E945D
:101A50008B0781E00E941D058BED92E00E94F80348
:101A600080E00E941D058CED94E00E948D03BC0176
:101A7000CE0101960E94C4086091CF04C8010E9463
:101A8000660960ED72E0CE018F579F4F0E945509A5
:101A9000B801CE018F579F4F0E94340865ED72E068
:101AA0000E941E08BE016F5F7F4F0E94340866E2ED
:101AB00072E00E941E080E940F03CE018F579F4FB5
:101AC0000E948B07C8010E948B07CE0101960E94DD
:101AD0008B070E94D1017C016AE070E080E090E019
:101AE0000E94840228E5E21A22E0F20A38ECE316AA
:101AF000F10408F0B5CF8BEE92E00E94F80340911C
:101B00008E0450918F04052E000C660B770B1092FB
:101B1000F6041092F5041092F4041092F30410925B
:101B2000F2041092F10490E080E0FC01E459FE4FD1
:101B3000C590D590E590F4904C155D056E057F0538
:101B400009F025C1FC01E059FE4F259134913093F5
:101B5000F0042093EF04FC01EE58FE4F25913491E0
:101B60003093F2042093F104FC01EC58FE4F2591D0
:101B700034913093F4042093F304FC01EA58FE4FAF
:101B8000859194919093F6048093F5048091F304E9
:101B90009091F404892BB1F19091E804963160F5AD
:101BA0002091680084E0983048F031E09E3008F4DD
:101BB00030E081E001C0880F3A95EAF7822B8093EC
:101BC0006800EDE6F0E0983050F0EBE6F0E09E3093
:101BD00030F0ECE6F0E0963110F0F0E0E0E040812B
:101BE000292F30E0983008F0DCC081E001C0880F78
:101BF0009A95EAF7842B80838091F5049091F604FE
:101C00000E94EE0380918B0490918C048C5D944033
:101C100091F08091F7048E7F8093F7048FB7F8944A
:101C200010928A04109289042CED34E030938C04D5
:101C300020938B048FBF8BEF92E00E94F80360E942
:101C400070E080E090E00E9484028BE093E00E94CC
:101C5000F8038091070181112EC060918D04FE016F
:101C600031967F0150E040E0A1E070E081939A015D
:101C70002F5F3F4F2A30310509F0A0C0D12CC12C75
:101C8000D7018D917D0161E0813009F060E082E053
:101C90000E94E201BFEFCB1ADB0A68EC70E080E043
:101CA00090E00E948402EAE0CE16D10449F78CED60
:101CB00094E00E947E038BE193E00E94F80380E0B1
:101CC0000E941D058CED94E00E948D03BC01CE01A5
:101CD00001960E94C4086091CF04C8010E94660961
:101CE00060ED72E0CE018F579F4F0E945509B801F9
:101CF000CE018F579F4F0E94340865ED72E00E941D
:101D00001E08BE016F5F7F4F0E94340866E272E0DA
:101D10000E941E080E940F03CE018F579F4F0E9402
:101D20008B07C8010E948B07CE0101960E948B078A
:101D300083E090E0C756DF4F99838883C959D0402C
:101D400081E00E941D058CE293E00E94F8038091DF
:101D50000701811145C021E030E0AE0147565F4FD9
:101D600063E070E0CE0183579F4F0E947709811195
:101D700037C081E00E941D058DE393E00E94F803C7
:101D80006CEB71E080E090E00E948402C3C00C968E
:101D9000883A910509F0C9CE1092F0041092EF0430
:101DA000F5CE9E3040F42850310981E001C0880F03
:101DB0002A95EAF71FCF2E503109F7CF8A2F283006
:101DC000310561F081E02930310541F0CB0102C0DD
:101DD000959587954A95E2F78170A827A90146CF86
:101DE00080E00E941D058CED94E00E948D03BC01F3
:101DF000CE0101960E94C4086091CF04C8010E94E0
:101E0000660960ED72E0CE018F579F4F0E94550921
:101E1000B801CE018F579F4F0E94340865ED72E0E4
:101E20000E941E08BE016F5F7F4F0E94340866E269
:101E300072E00E941E080E940F03CE018F579F4F31
:101E40000E948B07C8010E948B07CE0101960E9459
:101E50008B0781E00E941D058EE493E00E94F80349
:101E600080910701811160C0C357DF4F8881CD5831
:101E7000D040853579F4C257DF4F8881CE58D040A5
:101E8000813041F4C157DF4F8881CF58D0408A3824
:101E900009F44AC080E00E941D058CED94E00E9488
:101EA0008D03BC01CE0101960E94C4086091CF044D
:101EB000C8010E94660960ED72E0CE018F579F4F06
:101EC0000E945509B801CE018F579F4F0E943408D8
:101ED00065ED72E00E941E08BE016F5F7F4F0E9499
:101EE000340866E272E00E941E080E940F03CE01D1
:101EF0008F579F4F0E948B07C8010E948B07CE010E
:101F000001960E948B0781E00E941D058FE593E0FA
:101F10000E94F8030E94180380E090E0892B09F4E6
:101F200049CD0E94000046CD80E00E941D058CED49
:101F300094E00E948D03BC01CE0101960E94C4086A
:101F40006091CF04C8010E94660960ED72E0CE0185
:101F50008F579F4F0E945509B801CE018F579F4F51
:101F60000E94340865ED72E00E941E08BE016F5F9A
:101F70007F4F0E94340866E272E00E941E080E94B1
:101F80000F03CE018F579F4F0E948B07C8010E94FD
:101F90008B07CE0101960E948B0781E00E941D05F0
:101FA00080E793E00E94F80368E570E080E090E04D
:101FB0000E94840280E00E941D058CED94E00E9446
:101FC0008D03BC01CE0101960E94C4086091CF042C
:101FD000C8010E94660960ED72E0CE018F579F4FE5
:101FE0000E945509B801CE018F579F4F0E943408B7
:101FF00065ED72E00E941E08BE016F5F7F4F0E9478
:10200000340866E272E00E941E080E940F03CE01AF
:102010008F579F4F0E948B07C8010E948B07CE01EC
:1020200001960E948B0781E00E941D0581E893E0E4
:102030000E94F80380910701882309F4BCC081E065
:102040008093CF0480E00E941D058CED94E00E94F7
:102050008D03BC01CE0101960E94C4086091CF049B
:10206000C8010E94660960ED72E0CE018F579F4F54
:102070000E945509B801CE018F579F4F0E94340826
:1020800065ED72E00E941E08BE016F5F7F4F0E94E7
:10209000340866E272E00E941E080E940F03CE011F
:1020A0008F579F4F0E948B07C8010E948B07CE015C
:1020B00001960E948B0781E00E941D0582E993E052
:1020C0000E94F8036CE270E080E090E00E948402DD
:1020D00081E00E941D0583EA93E00E94F8030E94BC
:1020E000B6026093C1047093C2048093C3049093BA
:1020F000C4048091070181110C94B51ACC24C394B7
:10210000D12C5E01F1E4AF0EB11CDF92CF92809131
:10211000DA048F938091D9048F938EED93E09F938F
:102120008F93BF92AF920E94752965E070E0C50160
:102130000E94AF0A0FB6F894DEBF0FBECDBF882352
:1021400009F4E8CEC756DF4F19821882C959D0402A
:1021500021E030E0AE0147565F4F60E470E0C5011A
:102160000E947709882309F4D5CE8091DB04882367
:1021700009F441C18091DA048F938091D9048F933F
:1021800082E191E09F938F938E010F5F1F4F1F930A
:102190000F930E94752964E070E0C8010E94AF0AA5
:1021A0000F900F900F900F900F900F9081110AC118
:1021B0001092DB04AFCE6CEC73E0CE0189579F4FD9
:1021C0000E94550997EC892E93E0992ECD56DF4F4A
:1021D00019821882C359D0402FEF3FEFAE014D5600
:1021E0005F4F60E470E0CE0101960E94770988237A
:1021F000E1F0CD56DF4F28813981C359D040232BE0
:10220000A1F09B81993009F4DBC0963F09F453C0DB
:1022100081E00E941D0584EB93E00E94F80360EDCD
:1022200077E080E090E00E948402CE0189579F4FC2
:102230000E948B07711003CF80E00E941D058CED7A
:1022400094E00E948D03BC01CE0101960E94C40857
:102250006091CF04C8010E94660960ED72E0CE0172
:102260008F579F4F0E945509B801CE018F579F4F3E
:102270000E94340865ED72E00E941E08BE016F5F87
:102280007F4F0E94340866E272E00E941E080E949E
:102290000F03CE018F579F4F0E948B07C8010E94EA
:1022A0008B07CE0101960E948B0781E00E941D05DD
:1022B0008DEC93E02DCEBE016F5F7F4FCE018F5727
:1022C0009F4F0E945509CD56DF4FC880D980C35912
:1022D000D040F2E0CF1AD108B3E0AB2EB12C23E00E
:1022E000C216D10420F0560183E0C82ED12C6CEC2C
:1022F00073E0C8010E945509CB57DF4FE880F98091
:10230000C558D040CE14DF0430F5AE14BF0408F435
:102310007501CF57DF4FE881F981C158D040EE0DEC
:10232000FF1DB0801082CF57DF4F68817981C1587F
:10233000D0406C0D7D1DC80161157105C1F10E9471
:102340008D08CF57DF4F88819981C158D040E80E62
:10235000F91ED701BC92F8014481558160817181D9
:10236000CE0189579F4F0E94BB07C8010E948B076F
:102370008091DA048F938091D9048F939F928F92EA
:102380001F930F930E94752964E070E0C8010E94BA
:10239000AF0A0F900F900F900F900F900F90811138
:1023A00009C0CE018F579F4F0E948B073ECF0E94DE
:1023B0007907C7CFCE018F579F4F0E948B0706CF5B
:1023C000782E33CF1092DA041092D9041092DB04E5
:1023D000CF57DF4F19821882C158D0402FEF3FEFFF
:1023E000AE014F575F4F60E470E0C8010E9477096B
:1023F000882309F48FCDD50112968C91873E61F028
:1024000081E00E941D0586EE93E00E94F80360EDD6
:1024100077E080E090E0B8CCC756DF4F88819981A3
:10242000C959D040049763E070E00E943226C55439
:10243000DF4F79836883CB5BD0404501F12CE12CE1
:10244000FE0131961F01C554DF4F28813981CB5BD6
:10245000D040E216F3060CF0AAC7C7010196C95492
:10246000DF4F99838883C75BD040D40113967C905B
:10247000139714961C91149715960C916CEC73E0BD
:10248000CE018D569F4F0E9455096CEC73E0CE0132
:1024900083579F4F0E9455096CEC73E0CE0189571A
:1024A0009F4F0E945509EFEFE70DE63408F0EEC6A6
:1024B0000E2E000CFF0BE15AFD4E0C944626A51281
:1024C000F912181337135F1378139713B613D51334
:1024D000F813071430144F14721491144619461946
:1024E000B014CF14E314FF141E153D1543156215E7
:1024F00084159315BB154619CA15DC154619DF1549
:10250000F215151634164D16561679167C16A716A2
:10251000B916E41609172E17531769177C178E176B
:10252000A517C817CB17EC1715182618381849180F
:1025300046195B185E184619751846199418A418A0
:10254000C718DB18011918192F19612F70E090E0D6
:1025500080E00E946F242DEC3CEC4CE45EE30E9492
:10256000CE242B013C01602F70E090E080E00E94BF
:102570006F249B01AC01C301B2010E94CE242B0148
:102580003C0166EF72E0CE0189579F4F0E944708D9
:10259000809100018731A1F492E0C916D10409F4B9
:1025A000AFC6A3E0CA16D10409F4E7C6B1E0EB1642
:1025B000F10409F493C60CF076C6EF2809F485C639
:1025C000CE0189579F4F0E948B07CE0183579F4FA3
:1025D0000E948B07CE018D569F4F0E948B07E3E030
:1025E0008E0E911CC954DF4FE880F980C75BD04044
:1025F0002ACF612F70E090E080E00E946F242FE6E8
:1026000032E143E05BE30E94CE242B013C01602FCA
:1026100070E090E080E00E946F249B01AC01C30158
:10262000B2010E94CE242B013C0163EF72E0ABCFDC
:10263000612F70E090E080E00E946F242FE632E18D
:1026400043E05BE30E94CE242B013C01602F70E04D
:1026500090E080E00E946F249B01AC01C301B201B5
:102660000E94CE242B013C016FEE72E08CCFE02F54
:10267000EF57FF0BBF01F7FF03C07195619571091B
:10268000072E000C880B990B0E946F242AE037ED6F
:1026900043E25CE30E94CE242B013C01612F70E0F9
:1026A00090E080E00E946F249B01AC01C301B20165
:1026B0000E94CE242B013C016AEE72E064CF202FF1
:1026C0002456330B129FA001139F500D1124BA0101
:1026D000550F880B990B0E946F242DEC3CEC4CECB1
:1026E0005DE30E94CE242B013C0166EE72E04BCFED
:1026F000612F70E090E080E00E946F242FE632E1CD
:1027000043E85AE30E94CE242B013C01602F70E085
:1027100090E080E00E946F249B01AC01C301B201F4
:102720000E94CE242B013C0164EE72E02CCF612F7D
:1027300070E090E080E00E946F242AE037ED43E2F1
:102740005CE30E94CE242B013C01602F70E090E0FE
:1027500080E00E946F249B01AC01C301B2010E9482
:10276000CE242B013C016FED72E00DCF612F70E0A4
:1027700090E080E00E946F242DEC3CEC4CEC5DE39B
:102780000E94CE242B013C01602F70E090E080E09D
:102790000E946F249B01AC01C301B2010E94CE24B0
:1027A0002B013C016DED72E0EECE802F8F57990B1F
:1027B000BC01072E000C880B990B0E946F242AE0A5
:1027C00037ED43EA5CE30E94CE242B013C01612FEC
:1027D00070E090E080E00E946F249B01AC01C30197
:1027E000B2010E94CE242B013C0169ED72E0CBCEF8
:1027F00064ED72E0002311F06FEC72E0CE018357BC
:102800009F4F0E944708412C512C3201C1CE612FAD
:1028100070E090E080E00E946F2427E137EB41ED0B
:1028200058E30E94CE242B013C01A02FA058BB0BE3
:10283000BD01072E000C880B990B0E946F249B0191
:10284000AC01C301B2010E94CE2420E030E040E898
:102850005FE30E9461262B013C016DEC72E093CE98
:10286000612F70E090E080E00E946F242FE632E15B
:1028700043E85AE30E94CE242B013C01602F70E014
:1028800090E080E00E946F249B01AC01C301B20183
:102890000E94CE242B013C0169EC72E074CEE02F43
:1028A000EF57FF0BBF01072E000C880B990B0E94FE
:1028B0006F242FE632E143E85AE30E94CE242B0135
:1028C0003C01612F70E090E080E00E946F249B014A
:1028D000AC01C301B2010E94CE242B013C0166EC85
:1028E00072E051CE612F70E090E080E00E946F2492
:1028F0002AE037ED43EA5BE30E94CE242B013C0142
:10290000602F70E090E080E00E946F249B01AC019A
:10291000C301B2010E94CE242B013C0162EC72E0A3
:1029200032CE612F70E090E080E00E946F242AE0B8
:1029300037ED43E25CE30E94CE242B013C01602F83
:1029400070E090E080E00E946F249B01AC01C30125
:10295000B2010E94CE242B013C016FEB72E013CE3A
:10296000612F70E090E080E00E946F242AE037ED54
:1029700043E25DE30E94CE242B013C01602F70E016
:1029800090E080E00E946F249B01AC01C301B20182
:102990000E94CE242B013C016AEB72E0F4CD109F23
:1029A000B0011124072E000C880B990B0E946F2494
:1029B0002AE037ED43E25CE30E94CE242B013C0188
:1029C00068EB72E0E0CD202F2058330B129FA0015E
:1029D000139F500D112457FF02C041585F4FBA0199
:1029E000660F672F661F770B072E000C880B990B5D
:1029F0000E946F242B013C0165EB72E0C4CD612F76
:102A000070E090E080E00E946F242FE632E143E81E
:102A10005AE30E94CE242B013C01602F70E090E02D
:102A200080E00E946F249B01AC01C301B2010E94AF
:102A3000CE242B013C0163EB72E0A5CD612F70E049
:102A400090E080E00E946F242FE632E143E85AE3F1
:102A50000E94CE242B013C01602F70E090E080E0CA
:102A60000E946F249B01AC01C301B2010E94CE24DD
:102A70002B013C0160EB72E086CD6DEA72E0CE0185
:102A800089579F4FBECE612F70E090E080E00E949A
:102A90006F242FE632E143E85AE30E94CE242B0153
:102AA0003C01602F70E090E080E00E946F249B0169
:102AB000AC01C301B2010E94CE242B013C016BEAA0
:102AC00072E061CD602F70E090E080E00E946F24A2
:102AD00024E533EE45EB5FE30E94CE242B013C015D
:102AE00061E0163B08F460E070E090E080E00E9456
:102AF0006F249B01AC01C301B2010E9461262B012E
:102B00003C0167EA72E03FCD802F811B990BBC012D
:102B1000072E000C880B990B0E946F242B013C019F
:102B200065EA72E030CDA02FA058BB0BBD01B7FF06
:102B300003C0719561957109072E000C880B990BE4
:102B40000E946F242AE037ED43E25CE30E94CE242A
:102B50002B013C01612F70E090E080E00E946F2427
:102B60009B01AC01C301B2010E94CE242B013C01A8
:102B700062EA72E008CDE02FE11BFF0BBF01072ED8
:102B8000000C880B990B0E946F242B013C0160EA1A
:102B900072E0F9CC802F6CE00E942626819FB00164
:102BA0001124072E000C880B990B0E946F242B0117
:102BB0003C0168E972E0E7CC64E972E060CFF4E6DA
:102BC0000F9FC0011124612F70E00E943226072E52
:102BD000000C880B990B0E946F242B013C0161E9CA
:102BE00072E0D1CC202F2058330BB901072E000CF6
:102BF000880B990B0E946F242AE037ED43E25CE3D7
:102C00000E94CE242B013C01612F70E090E080E017
:102C10000E946F249B01AC01C301B2010E94CE242B
:102C20002B013C016EE872E0AECC612F70E090E0C9
:102C300080E00E946F242AE037ED43E25CE30E94CB
:102C4000CE242B013C01602F70E090E080E00E94D8
:102C50006F249B01AC01C301B2010E94CE242B0161
:102C60003C016AE872E08FCC212F30E0A0E0BAE0AE
:102C70000E9417262B013C01202F30E0AAE0B0E093
:102C80000E941726640D751D861D971D0E946D24D8
:102C90002B013C0167E872E076CC602F70E090E099
:102CA00080E00E946D242B013C0172CC802F805863
:102CB000990BBC01072E000C880B990B0E946F2406
:102CC0002FE632E143E85AE30E94CE242B013C0177
:102CD000612F70E090E080E00E946F249B01AC01C6
:102CE000C301B2010E94CE242B013C016FE772E0C8
:102CF0004ACC6AE772E0C3CE602F70E090E080E0DB
:102D00000E946F242DEC3CEC4CEC5DE30E94CE2441
:102D10002B013C01612F70E090E080E00E946F2465
:102D200020E030E04CEC51E40E94CE249B01AC0149
:102D3000C301B2010E94612620E030E048EC53E478
:102D40000E9460262B013C0168E772E01CCC602FDA
:102D500070E09FEF199F600D711D1124072E000C6C
:102D6000880B990B0E946F242B013C0165E772E0F0
:102D70000ACC602F70E090E080E00E946F242DEC80
:102D80003CEC4CEC5DE30E94CE242B013C01612F16
:102D900070E090E080E00E946F2420E030E04CEC96
:102DA00051E40E94CE249B01AC01C301B2010E94F8
:102DB000612620E030E048EC53E40E9460262B01BD
:102DC0003C0162E772E0DFCB602F70E090E080E0D2
:102DD0000E946F242DEC3CEC4CEC5DE30E94CE2471
:102DE0002B013C01612F70E090E080E00E946F2495
:102DF00020E030E04CEC51E40E94CE249B01AC0179
:102E0000C301B2010E9461262B013C0160E772E020
:102E1000BACB1F920F931F921F93A7EFB3E0BF93FC
:102E2000AF933F922F920E947529B101CE018F5727
:102E30009F4F0E945509BE016F577F4FCE018357A8
:102E40009F4F0E944007CE018F579F4F0E948B07D4
:102E50000FB6F894DEBF0FBECDBFD5CC612F70E0AA
:102E600090E080E00E946F242DEC3CEC4CEC5DE3A4
:102E70000E94CE242B013C01602F70E090E080E0A6
:102E80000E946F249B01AC01C301B2010E94CE24B9
:102E900020E030E048EC52E40E94CD262B013C01BA
:102EA0006EE672E070CB109FB001112460587C4038
:102EB000072E000C880B990B0E946F242CE732EF31
:102EC00040E35BE30E94CE242B013C0166E672E006
:102ED0005ACB802F8058990B189FA001199F500D35
:102EE0001124BA01550F880B990B0E946F242B01F6
:102EF0003C0163E672E047CB602F70E09FEF199FC3
:102F0000600D711D1124072E000C880B990B0E9477
:102F10006F242B013C0161E672E035CB602F669592
:102F20006695619FB0011124072E000C880B990B48
:102F30000E946F242DEC3CEC4CEC5DE30E94CE240F
:102F40002B013C016CE572E01ECBA02FA058BB0BFF
:102F5000BD01072E000C880B990B0E946F242B01DA
:102F60003C01612F70E090E080E00E946F242AE035
:102F700037ED43E25CE30E94CE249B01AC01C30128
:102F8000B2010E94CD262B013C0167E572E0FBCA2D
:102F900062E572E074CD612F70E090E080E00E9405
:102FA0006F242B013C01602F70E090E080E00E94D4
:102FB0006F242AE037ED43EA5CE30E94CE24A301AC
:102FC00092010E94CE24A30192010E9460262B014F
:102FD0003C016FE472E0D7CAE02FE058FF0BBF015D
:102FE000072E000C880B990B0E946F2426EA3AE00A
:102FF00046EB5FE30E94CE242B013C01612F70E081
:1030000090E080E00E946F2426EA3BE944EC5BE319
:103010000E94CE249B01AC01C301B2010E94612633
:103020002B013C016BE472E0AECA612F70E0762F99
:103030006627600F711D072E000C880B990B0E94EC
:103040006F242B013C0165E472E09DCA109FC00112
:10305000112468EC70E00E943226072E000C880BC9
:10306000990B0E946F242B013C0163E472E08BCA30
:10307000612F70E0762F6627600F711D072E000C00
:10308000880B990B0E946F242B013C016FE372E0C7
:103090007ACA612F70E0762F6627600F711D072EA8
:1030A000000C880B990B01960E946F242B013C01A8
:1030B0006BE372E068CA67E372E0E1CC612F70E015
:1030C000762F6627600F711D072E000C880B990B59
:1030D0000E946F242AE037ED43E25CE30E94CE2495
:1030E0002B013C0163E372E04ECA612F70E090E077
:1030F00080E00E946F242FE632E143E85EE30E9405
:10310000CE242B013C01602F70E090E080E00E9413
:103110006F249B01AC01C301B2010E94CE242B019C
:103120003C0161E372E02FCA212F200F3327331FA8
:10313000B901072E000C880B990B0E946F242B01FC
:103140003C016DE272E01FCA612F70E090E080E008
:103150000E946F242AE037ED43E25CE30E94CE2414
:103160002B013C01802F8F57990BBC01072E000CBF
:10317000880B990B0E946F249B01AC01C301B20123
:103180000E94CE242B013C016AE272E0FCC9109F30
:10319000B0011124072E000C880B990B0E946F249C
:1031A0002CE53FE84FEF53E40E94CD262B013C0174
:1031B00068E272E0E8C9A0E8B2E01A9FB0011B9F84
:1031C000700D1124072E000C880B990B0E946F24A0
:1031D0002B013C01602F70E090E080E00E946F24A2
:1031E00020E030E040E250E40E94CE249B01AC019C
:1031F000C301B2010E9461262B013C0164E272E02E
:10320000C2C9612F70E0762F6627600F711D072EEF
:10321000000C880B990B0E946F2424E13EEA4BEED0
:1032200050E40E94CD262B013C016EE172E0ABC957
:10323000612F70E0762F6627600F711D072E000C3E
:10324000880B990B0E946F2424ED3AE946EA5EE36D
:103250000E94CE242B013C016AE172E094C9612FE7
:1032600070E0762F6627600F711D072E000C880B0B
:10327000990B0E946F2426EA3BE944E45EE30E9436
:10328000CE242B013C0164E172E07DC91F920F93B3
:103290001F921F93EFEFF3E0FF93EF933F922F9274
:1032A0000E947529D5CDF2E0EF16F10401F123E07B
:1032B000E216F10409F084C9C301B2010E943F275C
:1032C00070939904609398047BC9C301B2010E9472
:1032D0003F277093CE046093CD0472C9C301B2013D
:1032E0000E943F277093CC046093CB0469C9C3014B
:1032F000B2010E943F2770939B0460939A0460C9B7
:1033000031E0E316F10439F1A4F4EF2809F058C9CB
:10331000C301B2010E943F27072E000C880B990BB6
:103320006093BD047093BE048093BF049093C00467
:1033300047C992E0E916F104B9F0A3E0EA16F104F6
:1033400009F03EC940929204509293046092940412
:103350007092950435C9C301B2010E943F27709352
:10336000C6046093C5042CC9C301B2010E943F2763
:10337000709397046093960423C9E114F10471F0EB
:10338000B2E0EB16F10409F01BC9C301B2010E94BF
:103390003F277093C8046093C70412C9C301B201E8
:1033A0000E943F277093CA046093C90409C9FFEFC4
:1033B000CF1ADF0A24E0C216D10411F00C94851054
:1033C0006BE172E0CE018F549F4F0E9455096BE173
:1033D00072E0CE0185559F4F0E9455096091CD0442
:1033E0007091CE04CE018B559F4F0E94C40860910E
:1033F000CB047091CC04CE0181569F4F0E94C4082B
:103400006091C9047091CA04CE0187569F4F0E94F3
:10341000C4086091C7047091C804CE018D569F4FB7
:103420000E94C4086091C5047091C604CE01835700
:103430009F4F0E94C4088091D9049091DA04C95723
:10344000DF4F19821882C758D040C757DF4F198203
:103450001882C958D040C557DF4F19821882CB58FF
:10346000D0404AE0BE016F5F7F4F0E940722BE013D
:103470006F5F7F4FCE0189579F4F0E948D08CB55BC
:10348000DF4FA881B981C55AD040FD0101900020CD
:10349000E9F731973F016A1A7B0AC156DF4FA881CD
:1034A000B981CF59D040FD0101900020E9F7319753
:1034B0001F012A1A3B0AC756DF4FA881B981C95993
:1034C000D040FD0101900020E9F731976F01CA1A41
:1034D000DB0ACD56DF4FA881B981C359D040FD0129
:1034E00001900020E9F731977F01EA1AFB0AC357E0
:1034F000DF4FA881B981CD58D040FD010190002057
:10350000E9F731975F01AA1ABB0AC957DF4FA881B3
:10351000B981C758D040FD0101900020E9F73197EB
:103520002F014A1A5B0A0E94B602C954DF4F688312
:1035300079838A839B83C75BD0408090B504909049
:10354000B60481E08816910409F443C40CF018C154
:103550008114910409F430C11092B6041092B5049C
:103560001092B4041092B30423C10E9446030E9437
:10357000942124E030E040E050E00E948C2561304E
:1035800071058105910531F48091A20491E08927AC
:103590008093A2048091CD049091CE0420910601E5
:1035A000222309F482C001969093CE048093CD0427
:1035B000883C91050CF086C08091CB049091CC049E
:1035C00020910501222309F480C0835B9F4F9093D3
:1035D000CC048093CB048C3B9B410CF084C0809145
:1035E000C9049091CA0420910401222309F47EC0E9
:1035F00001969093CA048093C904803A91050CF017
:1036000082C08091C7049091C804209103012223B5
:1036100009F47CC001969093C8048093C704803A53
:1036200091050CF080C081E090E09093A10480931C
:10363000A0048091C5049091C60420910201222328
:1036400009F474C001969093C6048093C504C99789
:103650000CF079C060919C0470919D0480919E044F
:1036600090919F0420910101222309F46FC020E072
:1036700030E040E85FE30E94612660939C04709311
:103680009D0480939E0490939F0420E030E048ECDA
:1036900051E40E94752787FF109201016FEA70E0E4
:1036A00080E090E00E9484028BCE01979093CE043C
:1036B0008093CD04181619060CF47ECF81E0809318
:1036C00006017ACF1092060177CF8D54910990931D
:1036D000CC048093CB04181619060CF480CF81E03B
:1036E000809305017CCF1092050179CF01979093CB
:1036F000CA048093C904181619060CF482CF81E01D
:10370000809304017ECF109204017BCF01979093A8
:10371000C8048093C704181619060CF484CF81E0FE
:103720008093030180CF109203017DCF0197909386
:10373000C6048093C504181619060CF48BCF81E0DB
:103740008093020187CF1092020184CF20E030E005
:1037500040E85FE30E94602660939C0470939D04A0
:1037600080939E0490939F0420E030E0A9010E9482
:10377000682418160CF492CF81E0809301018ECF5B
:10378000A2E08A16910409F4F2C366E374E0B3E0A0
:103790008B16910409F0E0CECE018F549F4F0E940A
:1037A0008D086CEC73E0CE0185559F4F0E948D080B
:1037B000CE0189579F4F17C40091B3041091B404F0
:1037C0000115110509F45FC00130110509F0C8CEDB
:1037D000C090C104D090C204E090C304F090C4042F
:1037E0008091BD049091BE04A091BF04B091C0042B
:1037F000C554DF4F88839983AA83BB83CB5BD040BA
:103800008091B9049091BA04A091BB04B091BC041A
:10381000C154DF4F88839983AA83BB83CF5BD04099
:10382000A090B704B090B804A091C504B091C604AC
:10383000CD53DF4FB983A883C35CD04010E000E0D4
:10384000061517050CF09EC10F5F1F4FB8016150A0
:103850007109CE018B559F4F0E94C202482F62E032
:1038600070E0061517054CF4C801019661E070E0A0
:103870008615970514F470E060E0CE018F549F4FD9
:103880000E94D302DDCF912C812C8614970404F57D
:10389000BFEF8B1A9B0AB40161507109CE018B55A1
:1038A0009F4F0E94C202482F62E070E08614970486
:1038B0004CF4C401019661E070E08615970514F49C
:1038C00070E060E0CE018F549F4F0E94D302DDCFA5
:1038D0004BE464E070E0CE018F549F4F0E94D3020E
:1038E0004DE465E070E0CE018F549F4F0E94D302FB
:1038F00048E466E070E0CE018F549F4F0E94D302EF
:10390000912C812C821493043CF5EFEF8E1A9E0AC1
:10391000B40161507109CE0181569F4F0E94C202CD
:10392000482F6BE070E08214930484F4C401019684
:103930006AE070E0821593054CF4C401029669E0D8
:1039400070E08215930514F468E070E0CE018F54A6
:103950009F4F0E94D302D6CF8091CB049091CC048C
:10396000813A9F4044F04DE26CE070E0CE018F540C
:103970009F4F0E94D30242E56DE070E0CE018F546C
:103980009F4F0E94D30240E56EE070E0CE018F545D
:103990009F4F0E94D3024DE46FE070E0CE018F5440
:1039A0009F4F0E94D302912C812C8C149D0404F50E
:1039B0002FEF821A920AB40161507109CE01875625
:1039C0009F4F0E94C202482F62E070E08C149D0459
:1039D0004CF4C401019661E070E08C159D0514F46F
:1039E00070E060E0CE0185559F4F0E94D302DDCF8D
:1039F00043E463E070E0CE0185559F4F0E94D302FF
:103A0000D12CC12CCE14DF0404F53FEFC31AD30A26
:103A1000B60161507109CE018D569F4F0E94C202BE
:103A2000482F67E070E0CE14DF044CF4C601019625
:103A300066E070E08E159F0514F465E070E0CE013D
:103A400085559F4F0E94D302DDCF43E468E070E0CC
:103A5000CE0185559F4F0E94D3020A151B059CF489
:103A60000F5F1F4FB80161507109CE0183579F4FFF
:103A70000E94C202482F6CE070E00A151B0544F753
:103A80006BE070E0E5CF4CE46DE070E0CE01855571
:103A90009F4F0E94D3026DEA74E0CE018F549F4F76
:103AA0000E941007811122C00E941D051A821982EE
:103AB0001C821B821E821D82BE016F547F4FCE016D
:103AC00001960E943E096BE172E0CE0101960E94D0
:103AD0001E080E940F03CE0101960E948B07BE01B3
:103AE0006F547F4F8DEA94E00E943E0967EA74E0CC
:103AF000CE0185559F4F0E941007811123C081E0A0
:103B00000E941D051A8219821C821B821E821D8240
:103B1000BE0165557F4FCE0101960E943E096BE1C3
:103B200072E0CE0101960E941E080E940F03CE0192
:103B300001960E948B07BE0165557F4F87EA94E08E
:103B40000E943E090E94B6020091A3041091A404B1
:103B50002091A5043091A6040617170728073907F6
:103B600008F03EC20E94D1018C3391050CF002C2D4
:103B70008091B3049091B40401969093B40480931F
:103B8000B30408C24BE464E070E0CE018F549F4F51
:103B90000E94D3024DE465E070E0CE018F549F4F48
:103BA0000E94D30248E466E070E0CE018F549F4F3C
:103BB0000E94D30210E000E00215130534F50F5FF8
:103BC0001F4FB80161507109CE0181569F4F0E946D
:103BD000C202482F6BE070E00215130584F4C8019F
:103BE00001966AE070E0821593054CF4C8010296D4
:103BF00069E070E08215930514F468E070E0CE018E
:103C00008F549F4F0E94D302D7CF8091CB049091C5
:103C1000CC04813A9F4044F04DE26CE070E0CE016C
:103C20008F549F4F0E94D302CD53DF4FE881F9811B
:103C3000C35CD040AE1ABF0A42E56DE070E0CE0131
:103C40008F549F4F0E94D30240E56EE070E0CE019A
:103C50008F549F4F0E94D3024DE46FE070E0CE017D
:103C60008F549F4F0E94D302C954DF4F68817981DE
:103C70008A819B81C75BD0406C197D098E099F09A1
:103C800028EE33E040E050E00E94F525CA01B9017A
:103C90000E946D249B01AC0160E070E081E695E438
:103CA0000E94CD266B017C01B5010B2C000C880B0A
:103CB000990B0E946F249B01AC01C701B6010E94C1
:103CC000CE24AB01BC01CE0101960E94F008C55480
:103CD000DF4F68817981CB5BD040C154DF4F2881B1
:103CE0003981CF5BD040621B730B84E690E00E9469
:103CF00032266A9DC0016B9D900D7A9D900D112416
:103D0000BC01990F880B990B0E946F24AB01BC0179
:103D1000CE018F579F4F0E94F00823961FAE1EAE14
:103D2000239725961FAE1EAE259727961FAE1EAE73
:103D30002797BE016F577F4FCE018F5B9F4F0E9429
:103D40003E096EE074E0CE018F5B9F4F0E941E081B
:103D5000BE016F5F7F4F0E94340860E272E00E94F4
:103D60001E08BC01CE0185559F4F0E943E09CE0121
:103D70008F5B9F4F0E948B07CE018F579F4F0E94F2
:103D80008B07CE0101960E948B07841495040CF0DA
:103D900082CE3FEF831A930AB40161507109CE01BC
:103DA00089579F4F0E94C202482F6FE070E0841431
:103DB00095044CF4C40101966EE070E084159505FD
:103DC00014F46DE070E0CE0185559F4F0E94D30240
:103DD000DCCF8091B3049091B40481309105B9F1A6
:103DE0008230910509F48EC0892B09F0B9CB61E0CE
:103DF00070E0CE0101960E94C40862E174E0CE0139
:103E00008F5B9F4F0E945509BE016F5F7F4FCE01B0
:103E10008F5B9F4F0E9434086FE172E00E941E0882
:103E2000BC01CE018F549F4F0E943E09CE018F5B93
:103E30009F4F0E948B07CE0101960E948B076AE17B
:103E400074E0CE0185559F4F0E948D0824CE60E01E
:103E5000CE0101960E94970865E274E0CE018F5B67
:103E60009F4F0E945509BE016F5F7F4FCE018F5B50
:103E70009F4F0E9434086AE272E00E941E0840E0F0
:103E800050E060E87FEB0E94E707BC01CE018F5451
:103E90009F4F0E943E09CE018F5B9F4F0E948B0770
:103EA000CE0101960E948B0760E0CE0101960E9430
:103EB000970868E274E0CE018F5B9F4F0E9455091E
:103EC000BE016F5F7F4FCE018F5B9F4F0E94340812
:103ED0006AE272E00E941E0840E050E060E87FEB7A
:103EE0000E94E707BC01CE0185559F4F0E943E0905
:103EF000CE018F5B9F4F0E948B07CE0101960E94DF
:103F00008B07C9CD60E0CE0101960E9497086BE255
:103F100074E0CE018F5B9F4F0E945509BE016F5F19
:103F20007F4FCE018F5B9F4F0E9434086AE272E0A0
:103F30000E941E0840E050E060E87FEB0E94E70727
:103F4000BC01CE018F549F4F0E943E09CE018F5B72
:103F50009F4F0E948B07CE0101960E948B0760E065
:103F6000CE0101960E9497086EE274E0A4CF61E34F
:103F700074E012CC883C9105E4F48091B5049091F2
:103F8000B60401969093B6048093B5041092B404DD
:103F90001092B3040E94B6026C507E4F8F4F9F4F19
:103FA0006093A3047093A4048093A5049093A60443
:103FB00017C08039A1E09A0734F48091B50490913C
:103FC000B6040197DFCF8835B2E09B0734F48091C7
:103FD000B3049091B4040197D0CD80329340D4F2D1
:103FE000CE0189579F4F0E948B07CE0183579F4F69
:103FF0000E948B07CE018D569F4F0E948B07CE01EA
:1040000087569F4F0E948B07CE0181569F4F0E947B
:104010008B07CE018B559F4F0E948B07CE01855594
:104020009F4F0E948B07CE018F549F4F0E948B079A
:104030000C948C0F1092DF041092DE0488EE93E053
:10404000A0E0B0E08093E0049093E104A093E20448
:10405000B093E30488E291E09093DD048093DC0464
:104060001092F0041092EF041092F2041092F104F6
:104070001092F4041092F3041092F6041092F504D6
:104080008091F7048E7F8D7F8093F70461E082E05A
:104090000E942E0261E082E00E94E201E4E2F3E08D
:1040A000E491E093EC04E0E1F3E0E491F0E0EE0F62
:1040B000FF1FEC5FFC4F859194919093EE048093E9
:1040C000ED0460E083E00E942E028091F70481FD00
:1040D00004C061E083E00E94E20183E08093E80491
:1040E000E5E2F3E0E491E093E904E1E1F3E0E49157
:1040F000F0E0EE0FFF1FEE59FE4F859194919093E3
:10410000EB048093EA040E94B6026093C1047093AA
:10411000C2048093C3049093C4046CEC73E08DEAF2
:1041200094E00E9455096CEC73E087EA94E00E94E9
:1041300055098091BD049091BE04A091BF04B09137
:10414000C0048093B9049093BA04A093BB04B093C5
:10415000BC048091C5049091C6049093B8048093E8
:10416000B7041092FB041092FA048CE191E0909352
:10417000F9048093F80488E08093FC048FEF809327
:10418000FD0489E08093FE0484E08093FF0485E0D1
:104190008093000586E08093010587E08093020507
:1041A0001092030510920405109205051092060561
:1041B0001092070581E00E942B056CEC73E082E809
:1041C00094E00E9455096CEC73E08CE794E00C9449
:1041D00055098CE794E00E948B0782E894E00E94E6
:1041E0008B0787EA94E00E948B078DEA94E00E9497
:1041F0008B0788E291E09093DD048093DC042091AA
:10420000E8042631C0F4EDE6F0E0283030F0EBE6CB
:10421000F0E02E3010F0ECE6F0E03081422F50E07C
:10422000283050F481E090E001C0880F2A95EAF729
:1042300080958323808308952E3048F44850510997
:1042400081E090E001C0880F4A95EAF7F1CF4E5027
:104250005109F6CFEF920F931F93CF93DF93E801AD
:1042600034E047FD34E1042E000C550B57FF03C02A
:10427000519541955109E32E022F242FAE010E9442
:104280002122CE01DF91CF911F910F91EF900895E0
:104290008F929F92AF92BF92CF92DF92EF92FF9256
:1042A000CF93DF93EC01688179818A819B816115CD
:1042B00071058105910521F464E279ED8BE597E0C4
:1042C0002DE133EF41E050E00E948C2549015A0175
:1042D0009B01AC01A7EAB1E40E94AB256B017C0114
:1042E000ACEEB4EFA50194010E94B925C60ED71E0D
:1042F000E81EF91EF7FE06C081E0C81AD108E108E1
:1043000080E8F80AC882D982EA82FB82C701B60136
:104310009F77DF91CF91FF90EF90DF90CF90BF908C
:10432000AF909F908F9008958F929F92AF92BF927F
:10433000CF92DF92EF92FF92609108017091090194
:1043400080910A0190910B0161157105810591051C
:1043500021F464E279ED8BE597E02DE133EF41E064
:1043600050E00E948C2549015A019B01AC01A7EA4B
:10437000B1E40E94AB256B017C01ACEEB4EFA5016A
:1043800094010E94B925C60ED71EE81EF91EF7FE3D
:1043900006C081E0C81AD108E10880E8F80AC09296
:1043A0000801D0920901E0920A01F0920B01C701C5
:1043B000B6019F77FF90EF90DF90CF90BF90AF90C6
:1043C0009F908F90089560930801709309018093E6
:1043D0000A0190930B010895FB01DC0105900D92F9
:1043E0000020E1F70895FC0105900020E9F7809591
:1043F00090958E0F9F1F0895BB274A3031F4992363
:1044000022F4BDE2909581959F4F0C940822BB2722
:10441000FB015527AA27880F991FAA1FA41710F080
:10442000A41B83955051B9F7A05DAA3308F0A95D8C
:10443000A193009779F7B111B1931192CB010C942C
:104440005824A9E0B0E0E7E2F2E20C94C4256A0146
:10445000F22EB02E102FFBE3AF2EA01608F41BE3B4
:104460001F5F012F27E0AE014F5F5F4F0E94802347
:10447000BC018981982F9970913009F43FC09BE26B
:10448000E1FC04C09E2D9170E0FC3AC05E2D50719D
:10449000E82FE87083FF46C084E0911101C083E0FB
:1044A000EF2DE81B8F1508F0E0E0D6018E2F20E2FB
:1044B000552351F1992329F0D6019C93C601019609
:1044C0006C0196012D5F3F4FE2FE24C08EE4D601C1
:1044D0008C9391E411969C93119712968C93D90129
:1044E0008E2F90E281111BC0E20FF32FF11D10827D
:1044F0008EEF9FEF2996ECE00C94E0259DE2C6CF6D
:1045000090E2C4CF2D9381508111FCCFCE0ED11CEF
:10451000E0E0D0CF8EE6D6018C9391E6DBCF9D9381
:104520008150E0CF482F447082FF3DC084E091115C
:1045300001C083E08F1510F4EF2DE81BD6018E2FFC
:1045400020E2552309F1992329F0D6019C93C60155
:1045500001966C0196012D5F3F4FE2FE1BC089E47E
:10456000D6018C938EE411968C93119786E4129663
:104570008C93D9018E2F90E2882309F4B5CF9D93B7
:104580008150FACF2D9381508111FCCFCE0ED11CDA
:10459000E0E0D9CF89E6D6018C938EE611968C9314
:1045A000119786E6E4CF9B0177FF02C030E020E060
:1045B000A1E0B0E0911102C0B0E0A0E0F9013196B5
:1045C000AE0FBF1F8B2C912CBB2009F461C054018E
:1045D000EFEFAE1ABE0AAA0DBB1DFA161B0619F0A4
:1045E00014F04F2D4A1B511188C0E3FC59C07601CD
:1045F000A42FB0E2A1114FC0C40ED11C992309F41D
:104600005BC040E0D6011196F60190836D01552301
:1046100009F448C0012F060F9A81582F507184FF6A
:1046200003C0913309F4015010160CF047C0093053
:1046300008F008E0EEE2FE2E5B01A01AB108850149
:104640009194819491082F3F320729F4D601FC926E
:10465000F60131966F016217730794F10217130781
:104660007CF5DB01A21BB30BAA24A394B12CAC0EE6
:10467000BD1EAA0DBB1D11968C9121503109D6018A
:10468000119628153905F4F0F60180836D01DBCF12
:10469000B12CA12CA0CFF701B1937F01A150AACFDB
:1046A0009111B0CFD601942F50E302C05D93915089
:1046B0009111FCCFC40ED11C40E0ACCF01E0BACFC9
:1046C00080E3DBCF6217730731F4963388F49533B8
:1046D00011F4552369F0F6018083FD01842F90E2E7
:1046E000811108C0A40FB11D1C9290E080E002CFA0
:1046F00081E3F1CF91938150F3CF911183CF8ACF92
:10470000283008F027E03327DA01990F311D87FDA3
:10471000916000966105710539F432602E5F3D931A
:1047200030E32A95E1F708959F3F30F08038710516
:10473000610509F03C5F3C5F3D93913008F0806873
:10474000911DDF93CF931F930F93FF92EF92192F39
:10475000987F9695E92F96959695E90FFF27EE534A
:10476000FF4F99273327EE24FF24A701E701059087
:104770000894079428F4360FE71EF81E491F511DB0
:10478000660F771F881F991F0694A1F7059007945D
:1047900028F4E70EF81E491F561FC11D770F881F0A
:1047A000991F661F0694A1F70590079428F4F80E48
:1047B000491F561FC71FD11D880F991F661F771FDE
:1047C0000694A1F70590079420F4490F561FC71FC0
:1047D000D81F990F661F771F881F0694A9F7849129
:1047E0001095177041F0D695C79557954795F79452
:1047F000E7941A95C1F7E8E6F0E0689415901591F2
:1048000035916591959105907FE27395E118F10AD4
:10481000430B560BC90BD009C0F7E10CF11E431F27
:10482000561FC91FD01D7EF4703311F48A95E6CF50
:10483000E894015030F0080F0AF40027021708F43A
:10484000202F2395022F7A3328F079E37D932A9540
:10485000E9F710C07D932A9589F606949795679598
:10486000379517951794E118F10A430B560BC90BAE
:10487000D00998F023957E9173957A3308F070E310
:104880007C932013B8F77E9170617D9330F083950F
:1048900071E37D9370E32A95E1F71124EF90FF9087
:1048A0000F911F91CF91DF91992787FD90950895E2
:1048B000DC01FC01672F71917723E1F7329704C087
:1048C0007C916D9370836291AE17BF07C8F3089512
:1048D0000E94AA2408F481E00895E89409C097FB97
:1048E0003EF490958095709561957F4F8F4F9F4FC7
:1048F0009923A9F0F92F96E9BB279395F69587950B
:1049000077956795B795F111F8CFFAF4BB0F11F4CD
:1049100060FF1BC06F5F7F4F8F4F9F4F16C0882374
:1049200011F096E911C0772321F09EE8872F762FAA
:1049300005C0662371F096E8862F70E060E02AF0EB
:104940009A95660F771F881FDAF7880F96958795D7
:1049500097F90895990F0008550FAA0BE0E8FEEFAC
:1049600016161706E807F907C0F012161306E40733
:10497000F50798F0621B730B840B950B39F40A262C
:1049800061F0232B242B252B21F408950A2609F40A
:10499000A140A6958FEF811D811D08950E94E124FD
:1049A0000C9452250E94442538F00E944B2520F09B
:1049B000952311F00C943B250C94412511240C9463
:1049C00086250E94632570F3959FC1F3950F50E0F3
:1049D000551F629FF001729FBB27F00DB11D639FB1
:1049E000AA27F00DB11DAA1F649F6627B00DA11D57
:1049F000661F829F2227B00DA11D621F739FB00DFD
:104A0000A11D621F839FA00D611D221F749F33276C
:104A1000A00D611D231F849F600D211D822F762F05
:104A20006A2F11249F5750409AF0F1F088234AF0E2
:104A3000EE0FFF1FBB1F661F771F881F915050404E
:104A4000A9F79E3F510580F00C943B250C948625D8
:104A50005F3FE4F3983ED4F3869577956795B795D5
:104A6000F795E7959F5FC1F7FE2B880F911D9695EF
:104A7000879597F9089597F99F6780E870E060E05F
:104A800008959FEF80EC089500240A9416161706E7
:104A900018060906089500240A941216130614062F
:104AA00005060895092E0394000C11F4882352F092
:104AB000BB0F40F4BF2B11F460FF04C06F5F7F4F4A
:104AC0008F4F9F4F089557FD9058440F551F59F031
:104AD0005F3F71F04795880F97FB991F61F09F3FEB
:104AE00079F087950895121613061406551FF2CF14
:104AF0004695F1DF08C0161617061806991FF1CF64
:104B000086957105610508940895E894BB2766278A
:104B10007727CB0197F90895052E97FB1EF4009493
:104B20000E94A32557FD07D00E94F52507FC03D05E
:104B30004EF40C94A32550954095309521953F4F08
:104B40004F4F5F4F089590958095709561957F4F79
:104B50008F4F9F4F08950E941726A59F900DB49FD9
:104B6000900DA49F800D911D11240895B7FF0C9402
:104B7000AB250E94AB25821B930B08952F923F9289
:104B80004F925F926F927F928F929F92AF92BF925D
:104B9000CF92DF92EF92FF920F931F93CF93DF9309
:104BA000CDB7DEB7CA1BDB0B0FB6F894DEBF0FBE66
:104BB000CDBF09942A88398848885F846E847D84B3
:104BC0008C849B84AA84B984C884DF80EE80FD80B5
:104BD0000C811B81AA81B981CE0FD11D0FB6F8942B
:104BE000DEBF0FBECDBFED010895A1E21A2EAA1BB4
:104BF000BB1BFD010DC0AA1FBB1FEE1FFF1FA2178D
:104C0000B307E407F50720F0A21BB30BE40BF50B89
:104C1000661F771F881F991F1A9469F76095709512
:104C2000809590959B01AC01BD01CF010895A29F95
:104C3000B001B39FC001A39F700D811D1124911D70
:104C4000B29F700D811D1124911D0895991B79E06B
:104C500004C0991F961708F0961B881F7A95C9F70C
:104C60008095089597FB072E16F4009407D077FDE2
:104C700009D00E944C2607FC05D03EF49095819502
:104C80009F4F0895709561957F4F0895EE0FFF1F18
:104C90000590F491E02D0994AA1BBB1B51E107C0BC
:104CA000AA1FBB1FA617B70710F0A61BB70B881FBC
:104CB000991F5A95A9F780959095BC01CD0108954B
:104CC0005058BB27AA270E9478260C9452250E9490
:104CD000442538F00E944B2520F039F49F3F19F409
:104CE00026F40C9441250EF4E095E7FB0C943B254B
:104CF000E92F0E94632558F3BA17620773078407E8
:104D0000950720F079F4A6F50C9485250EF4E0952E
:104D10000B2EBA2FA02D0B01B90190010C01CA0175
:104D2000A0011124FF27591B99F0593F50F4503E20
:104D300068F11A16F040A22F232F342F4427585F12
:104D4000F3CF469537952795A795F0405395C9F72A
:104D50007EF41F16BA0B620B730B840BBAF09150E2
:104D6000A1F0FF0FBB1F661F771F881FC2F70EC081
:104D7000BA0F621F731F841F48F487957795679554
:104D8000B795F7959E3F08F0B0CF9395880F08F040
:104D90009927EE0F9795879508950E94E1260C9428
:104DA00052250E944B2558F00E94442540F029F4DA
:104DB0005F3F29F00C943B2551110C9486250C94EF
:104DC00041250E94632568F39923B1F3552391F39C
:104DD000951B550BBB27AA2762177307840738F06A
:104DE0009F5F5F4F220F331F441FAA1FA9F335D0C7
:104DF0000E2E3AF0E0E832D091505040E695001C7B
:104E0000CAF72BD0FE2F29D0660F771F881FBB1F34
:104E1000261737074807AB07B0E809F0BB0B802D12
:104E2000BF01FF2793585F4F3AF09E3F510578F03E
:104E30000C943B250C9486255F3FE4F3983ED4F315
:104E4000869577956795B795F7959F5FC9F7880F12
:104E5000911D9695879597F90895E1E0660F771F64
:104E6000881FBB1F621773078407BA0720F0621BF5
:104E7000730B840BBA0BEE1F88F7E09508950E9420
:104E800046276894B1110C94862508950E946B25DD
:104E900088F09F5798F0B92F9927B751B0F0E1F0FB
:104EA000660F771F881F991F1AF0BA95C9F714C0AB
:104EB000B13091F00E948525B1E008950C948525CC
:104EC000672F782F8827B85F39F0B93FCCF38695E4
:104ED00077956795B395D9F73EF490958095709541
:104EE00061957F4F8F4F9F4F08950E94AA2408F429
:104EF0008FEF08950F931F93CF93DF938230910527
:104F000010F482E090E0E0911205F091130530E09A
:104F100020E0B0E0A0E0309799F42115310509F4C4
:104F20004AC0281B390B24303105D8F58A819B8172
:104F30006115710589F1FB0193838283FE0111C024
:104F4000408151810281138148175907E0F04817C9
:104F5000590799F4109761F012960C9312971396D3
:104F60001C933296CF01DF91CF911F910F9108953D
:104F70000093120510931305F4CF2115310551F05C
:104F80004217530738F0A901DB019A01BD01DF0187
:104F9000F801C1CFEF01F9CF90931305809312056B
:104FA000CDCFFE01E20FF31F81939193225031097F
:104FB00039832883D7CF2091100530911105232BF9
:104FC00041F420910E0130910F013093110520938F
:104FD000100520910C0130910D012115310541F48E
:104FE0002DB73EB74091100150911101241B350B94
:104FF000E0911005F0911105E217F307A0F42E1BC4
:105000003F0B2817390778F0AC014E5F5F4F24172C
:10501000350748F04E0F5F1F509311054093100560
:10502000819391939FCFF0E0E0E09CCFCF93DF930B
:105030000097E9F0FC01329713821282A0911205C9
:10504000B0911305ED0130E020E01097A1F420812C
:105050003181820F931F209110053091110528177F
:10506000390709F061C0F0931105E0931005DF9155
:10507000CF910895EA01CE17DF07E8F54A815B81F9
:105080009E0141155105B1F7E901FB83EA8349917E
:105090005991C40FD51FEC17FD0761F480819181F0
:1050A0000296840F951FE9019983888382819381F9
:1050B0009B838A83F0E0E0E012968D919C91139798
:1050C0000097B9F52D913C911197CD010296820F71
:1050D000931F20911005309111052817390739F6D3
:1050E000309751F51092130510921205B0931105E7
:1050F000A0931005BCCFD383C28340815181840F1C
:10510000951FC817D90761F44E5F5F4F8881998159
:10511000480F591F518340838A819B8193838283E7
:105120002115310509F0B0CFF0931305E093120576
:105130009ECFFD01DC01C0CF13821282D7CFB0E039
:10514000A0E0E5EAF8E20C94C0258C01009751F448
:10515000CB010E947A278C01C801CDB7DEB7E0E110
:105160000C94DC25FC01E60FF71F9C01225031094D
:10517000E217F30708F49DC0D901CD91DC91119796
:10518000C617D70798F0C530D10530F3CE01049784
:105190008617970708F3C61BD70B2297C193D193A5
:1051A0006D937C93CF010E941628D6CF5B01AC1A79
:1051B000BD0A4C018C0E9D1EA0911205B0911305E5
:1051C000512C412CF12CE12C109731F580911005D8
:1051D000909111058815990509F05CC0461657068F
:1051E00008F058C080910C0190910D01009741F496
:1051F0008DB79EB74091100150911101841B950B02
:10520000E817F90708F055C0F0931105E093100571
:10521000F90171836083A0CF8D919C9111971296B3
:105220006C90129713967C901397A815B90559F5B1
:105230006C0142E0C40ED11CCA14DB0420F1AC01A5
:105240004A195B09DA011296159780F0628273821F
:1052500051834083D9016D937C93E114F10471F083
:10526000D7011396FC93EE93129776CF22968C0F6C
:105270009D1FF90191838083F301EFCFF093130514
:10528000E093120569CF4816590608F42C017D01F8
:10529000D3019ACFCB010E947A277C01009749F075
:1052A000AE01B8010E945C29C8010E94162887013E
:1052B00053CF10E000E050CFFB01DC0102C00190B1
:1052C0000D9241505040D8F70895FB01DC018D91BB
:1052D000019080190110D9F3990B0895FB01DC01AD
:1052E00001900D920020E1F70895AEE0B0E0EBE709
:1052F000F9E20C94CC250D891E8986E08C831A83F3
:1053000009838FEF9FE79E838D83AE01475E5F4FDA
:105310006F89788DCE0101960E9498292F8138855A
:10532000020F131FF80110822E96E4E00C94E8257A
:10533000ABE0B0E0EEE9F9E20C94BE257C013B0164
:105340008A01FC0117821682838181FFC8C1CE01C8
:1053500001965C01F7019381F30193FD859193FF21
:1053600081913F01882309F453C1853239F493FDBB
:10537000859193FF81913F01853229F4B70190E037
:105380000E94882BE7CF912C212C312CFFE1F315C3
:1053900038F08B3211F190F4803209F1833229F127
:1053A00037FC3CC020ED280F2A3050F536FE20C0D7
:1053B0008AE0989E200D1124922E06C08D3291F025
:1053C000803371F7689430F8F30193FD859193FF72
:1053D00081913F018111DACF21C0689431F868943E
:1053E00032F8F2CF689433F8EFCF689434F8ECCF0A
:1053F000EAE02E9E200D1124222E689435F8E4CF89
:105400008E3229F436FC04C1689436F8DDCF8C3630
:1054100019F4689437F8D8CF8836B1F2982F9F7D69
:1054200095549330E0F08336A1F18337C1F1833591
:1054300009F063C02801F2E04F0E511CF801C08052
:10544000D180692D70E036FC02C06FEF7FEFC6019E
:105450000E94722B4C01689437F882010AC00C5FDD
:105460001F4FFFE3F98388248394912C6501E8940E
:1054700037F833FE2DC0522C8114910471F555205C
:1054800009F468CFB70180E290E00E94882B5A941B
:10549000F6CFF801808189830E5F1F4FE4CF28018A
:1054A000F2E04F0E511CF801C080D180692D70E0F0
:1054B00036FC02C06FEF7FEFC6010E947D2B4C01CE
:1054C0008201D5CFB70180E290E00E94882B2A9418
:1054D0002814190409F0B0F7CECFF60137FC8591F6
:1054E00037FE81916F01B70190E00E94882B511027
:1054F0005A94F1E08F1A9108BFCF843619F089369B
:1055000009F077C0F80137FE6BC06081718182813C
:1055100093810C5F1F4FF32DFF763F2E97FF09C03D
:1055200090958095709561957F4F8F4F9F4F6894B0
:1055300037F82AE030E0A5010E94B82BC82ECA181F
:105540008C2C432C36FE0CC0E89440F8C91440F46F
:1055500034FE05C032FC03C0F32DFE7E4F2E892C95
:1055600044FE95C0FE01EC0DF11D8081803309F0F1
:1055700087C0242D297E422E842D8870582E43FC0E
:1055800095C040FE8FC09C2C821418F42C0C922CD9
:10559000981844FE91C0B70180E390E00E94882BE8
:1055A00042FE09C088E790E041FE02C088E590E035
:1055B000B7010E94882BC91408F48AC0CA94D12C60
:1055C0009FEFC91AD90ACA0CDB1CF60182916F0140
:1055D000B70190E00E94882BAC14BD04B1F74FCF07
:1055E00060817181072E000C880B990B0E5F1F4F95
:1055F00092CFD32CE894D4F82AE030E0853739F103
:10560000232D297FD22E8F3601F148F48835A9F059
:10561000F701868197812B96E2E10C94DA25803799
:1056200049F08837A9F7D4FE02C06894D2F820E187
:1056300030E00DC06894D4F8F6CF34FE03C0822F5A
:105640008660D82E20E132E002C028E030E0F80188
:10565000D7FE0FC060817181828193810C5F1F4FE3
:10566000A5010E94B82BC82ECA183D2CE89437F823
:1056700067CF6081718190E080E00E5F1F4FF0CFB7
:1056800042FC02C0839478CF8394839475CF842D99
:10569000867809F471CFF6CFB70180E290E00E94DE
:1056A000882B83948214C0F3512C73CF522C58183A
:1056B000821408F46ECFF8CF842D867809F47BCF5E
:1056C0008BE241FE80E247FC8DE2B70190E071CFB2
:1056D000B70180E390E00E94882B9A946CCF8FEF03
:1056E0009FEF99CFFC010590615070400110D8F7F1
:1056F000809590958E0F9F1F0895FC01615070401A
:1057000001900110D8F7809590958E0F9F1F0895F6
:105710000F931F93CF93DF93182F092FEB018B81EA
:1057200081FD09C01FEF0FEF812F902FDF91CF91E7
:105730001F910F91089582FF14C02E813F818C81AB
:105740009D81281739073CF4E881F981CF01019642
:105750009983888310838E819F8101969F838E8396
:10576000E3CFE885F985812F0995892BA1F3DACF5D
:10577000FA01AA27283051F1203181F1E8946F9382
:105780006E7F6E5F7F4F8F4F9F4FAF4FB1E03ED028
:10579000B4E03CD0670F781F891F9A1FA11D680FC6
:1057A000791F8A1F911DA11D6A0F711D811D911DF9
:1057B000A11D20D009F468943F912AE0269F11246E
:1057C0003019305D3193DEF6CF010895462F4770D2
:1057D000405D4193B3E00FD0C9F7F6CF462F4F702D
:1057E000405D4A3318F0495D31FD4052419302D08B
:1057F000A9F7EACFB4E0A695979587957795679531
:10580000BA95C9F700976105710508959B01AC0130
:105810000A2E06945795479537952795BA95C9F757
:10582000620F731F841F951FA01D089511E0C6EA23
:10583000D1E004C0FE010E9446262196C73AD10756
:06584000C9F7F894FFCF48
:10584600FF0101010101010501000000000014052E
:105856008000032563000300000000000A07E2023F
:10586600F503E102000000000504E202F5037E03F1
:105876008D03A5036403202020204F2042204400EE
:105886002044204920532050204C204120592000FC
:105896004465627567206D6F6465206F6E3F003CDE
:1058A6002D2D20592020202020204E202D2D3E0059
:1058B60020202020202020202020204E202D2D3E7C
:1058C600003C2D2D20592020202020202020202083
:1058D600200053656C65637420636F6E206D6F6482
:1058E600653A003C2D204543552020202053494D44
:1058F600202D3E003C2D20454355202020202020F1
:10590600202020200020202020202020202020537E
:10591600494D202D3E00426175643A2020202055D5
:10592600502039363030003C2D343830302020209D
:1059360031303430302D3E00426175643A202020EB
:105946002020202020202020003C2D3438303020FC
:105956002020202020202020202000202020202061
:105966002020202020202020202020002020202051
:10597600202020202031303430302D3E0053656CFD
:105986006563742045435520616464723A003C2D7A
:105996002D203031202020203137202D2D3E003C77
:1059A6002D2D2030312020202020202020202000D6
:1059B600202020202020202020203137202D2D3E81
:1059C600004552523A73697A653E6D617873697A19
:1059D60065005741524E20626C6F636B206C656E9A
:1059E6006774680054696D656F75743A2000736555
:1059F600630053656E743A200020526573703A2036
:105A0600004552523A20494E5620434F4D504C00C5
:105A1600434F4E3A00204156413A002D3E505245E2
:105A2600535320454E5445523C2D004F42442E625E
:105A36006567696E202020202020004F42442E6298
:105A46006567696E2020444F4E4500354261756496
:105A5600496E69742020202020200035426175643B
:105A6600496E6974202020444F4E450048616E649B
:105A76007368616B65202020202020200048616E1D
:105A8600647368616B6520204552524F520048612D
:105A96006E647368616B65202020202E2E2E0048D0
:105AA600616E647368616B65202057524F4E4700E4
:105AB60048616E647368616B65202052494748549B
:105AC60000526561642045435520646174612E2E41
:105AD6002E00526561642045435520646174612E31
